:020000040800F2
:1000000068250020691D0008871D0008891D00085B
:100010008B1D00088D1D00088F1D000800000000CA
:10002000000000000000000000000000911D00081A
:10003000931D000800000000951D0008971D000892
:10004000711D0008711D0008711D0008711D000858
:10005000711D0008711D0008711D0008711D000848
:10006000711D0008711D0008A71D0008711D000802
:10007000711D0008711D0008711D0008711D000828
:10008000711D0008711D0008711D0008711D000818
:10009000991D0008711D0008711D0008711D0008E0
:1000A000711D0008711D0008711D0008711D0008F8
:1000B000711D0008711D0008711D0008711D0008E8
:1000C000711D0008711D0008711D0008711D0008D8
:1000D000711D0008711D0008711D0008711D0008C8
:1000E000711D0008711D00089D1D000810B5DFF886
:1000F000884700B92BE000F099F800688047206835
:100100000B3010BD80B5DFF87007DFF8702700688E
:100110005278C1788A420CD38278002A04BF828840
:10012000002A06D1C17200F081F8406880470020A3
:1001300002BD022002BD10B5DFF83C4700B906E061
:1001400000F074F88068804720680D3010BD216889
:1001500001200882002010BD10B5DFF81C47DFF831
:10016000202720681268C1784079926990472168F9
:10017000CA7A92B1002804BF087900280DD1887886
:1001800058B900F053F8C06880472068417901737E
:100190002068C1784173002010BD022010BD10B549
:1001A000DFF8D416096810B9022008823CE0DFF8B5
:1001B000D44600202080002208787F23184215D1E1
:1001C000487A81064CBF42F0020102F0FD01217025
:1001D0004006217854BF01F0FE0041F0010020707C
:1001E00000F024F800698047204610BD00F07F032E
:1001F000012BF9D000F07F00022815D14879DFF8F3
:10020000883600F00F01000653F8210042F0010289
:1002100005D500F030001028E2D12270E0E700F4AC
:100220004050B0F5805FF7E7002010BDDFF85C06B6
:1002300000687047F8B5DFF840060068017811F0F3
:100240007F0108BF81724FD0022901BF4188002978
:10025000017900294AD14179DFF82C4621F0800547
:100260000A0654F825204CBF02F0300202F4405236
:10027000DFF808361B789D4238D2002A1CBFC07AAE
:10028000002833D0080654F825000BD500F03000C4
:10029000102825D1284600F07FFB3021284600F0A9
:1002A00036FB1DE000F44050B0F5805F18D148F2F5
:1002B00080064BF68F7745B900F0BCFA20683840CD
:1002C00080F44050304320600AE0284600F052FBA2
:1002D00054F82500384080F44050304344F825005D
:1002E000FFF7A4FF406980470020F2BD0220F2BD65
:1002F00038B5DFF88405DFF890150268537923F0EC
:1003000080001C0651F820404CBF04F0300404F477
:100310004054DFF868552D78A84206D2558825B993
:10032000002C1CBFD27A002A01D1022032BD1B064C
:1003300051F8203048F2800205D548F6BF742340BA
:1003400083F0100304E04BF68F74234083F4805352
:100350001A4341F82020FFF769FF80698047002099
:1003600032BD80B5DFF81015096801208872FFF7EB
:100370005DFFC0698047002002BDDFF8FC241268E1
:10038000538A20B98888C01A1082002070470868F4
:1003900018187047F8B5DFF8E054286800F1100429
:1003A000A1682688080018BF002E14D0A0888642B5
:1003B00088BF06463046884707462088801B208035
:1003C000608830186080002000F000FB0146324653
:1003D000384600F061FB2088DFF8B46450B1DFF8E4
:1003E000B4144FF4405008800021002000F0F5FACA
:1003F000302030802188A2882868914228BF0321BC
:1004000001D211B105210172F1BD06210172DFF89F
:100410007004006880688047DFF87C14DFF87C2473
:100420000968002089B242F8110030203080F1BD07
:100430002DE9F843DFF84044DFF85454206800F118
:1004400010063188002904BF007A042816D1DFF88D
:100450005004017871B1DFF84024DFF840341268AD
:10046000002192B243F81210042730212980002184
:1004700001702CE010200727288028E0B6F80480BF
:10048000884505D30427414588BF4146884600E09A
:100490000227B168404688478146002000F095FA5F
:1004A00001464246484600F0E2FA4146002000F08C
:1004B00094FA3088DFF8DC13A0EB080030807088F5
:1004C00040447080302028804FF4405008802068DD
:1004D0000772BDE8F18338B5DFF89C4320684578A2
:1004E00001787F2211423BD1092D02D1FFF70AFE8C
:1004F0004AE0052D1BD1C178802952DA8178002984
:1005000001BF81880029C07A00284AD1DFF88823FA
:10051000DFF888331268002192B243F812100620E7
:10052000DFF86C23302111802168087231BD032D62
:100530000BD1C178012904BF8188002926D1407AD6
:10054000800623D5FFF70DFF1EE0012D04BFC17803
:1005500001291BD18188C9B9407A80060DD415E0E4
:1005600001F07F00012804D10B2D0FD1FFF7F4FD1E
:100570000AE002280AD1012D02D1FFF75BFE03E059
:10058000032D03D1FFF7B4FE0028BFD0BC49096892
:10059000496928468847032808BF0920C4D0002895
:1005A000B4D00820C0E738B5B34DB54C28684178C1
:1005B000062913D101787F2211422AD1807801289F
:1005C00002D12068C16969E0022802D12068016A6D
:1005D00064E003281DD12068416A5FE000293ED114
:1005E0004188002904BFC188022912D1017981B94B
:1005F00001787F22114204BF8288002A2DD001F0A9
:100600007F02012A0FD100F08BF810B92868C07A58
:1006100018BB28682168407809698847032846D1B3
:100620002968092051E001F07F010229F1D14079C8
:10063000954B00F00F0100F07002000653F8210006
:100640004CBF00F0300000F440508C4B1B789942B6
:10065000DFD2002ADDD10028DBD092491EE0082934
:1006600005D100787F210842D3D18F4916E00A29AD
:1006700002BF017801F07F010129CAD1C17A0029A6
:10068000C7D04188002901BF01790029C18801290B
:10069000BFD100F045F80028BBD184490800B8D08C
:1006A0002868002242828161002088470020296852
:1006B0000B8A1A464FF6FF75AA4208BF092004D0DC
:1006C000022818BF002B02D10820087231BD08781B
:1006D00000061ED5C88800902468009D9D4202D265
:1006E000009808820FE083420DD294F82C006C4DE4
:1006F000834238BF002005D392FBF0F300FB1320A8
:1007000008B90120287094F82C008882BDE8314097
:100710008EE6032008724FF440505E49088031BDD8
:100720002268407992690021104738B55A486049DB
:100730000068514C80B231F8100021680A7A4000FC
:1007400000F1804000F5C040092A14D010F8012BB8
:100750000A7010F8011B22685170851C35F8040BD3
:1007600000F080F921684880288800F07BF9216832
:100770008880A888C8800120216808722068C08805
:1007800010B9FFF7A8FE01E0FFF70DFFBDE831400B
:100790003AE010B5384C2068017A022918BF0429C4
:1007A00004D1FFF745FE2068007A10E0062904BF57
:1007B0004178052902BF01787F22114206D1C07815
:1007C00000F03EF8FFF732FD006A8047082017E08E
:1007D00010B5294C2068007A022818BF04280ED0D2
:1007E000032818BF052804D1FFF7D4FD2068007A3C
:1007F00006E0072803D122480068C0688047082027
:1008000021680872BDE8104080B500F013F81A485E
:100810000068017A082906D11E4A4FF480511180E0
:1008200010211B4A1180007A092801D1012002BD44
:10083000002002BD1F4890F82C10002000F0D4B812
:1008400070B50E49104B0978002248F68F760BE000
:10085000D4B253F824503540254345F4004545F0C3
:10086000800543F82450521C8A42F1D3124940F0CB
:100870008000086070BD000010050020E40000202A
:100880001405002054050020005C004018050020DD
:100890005A05002058050020505C004004600040CC
:1008A000610500209F010008ED00000837010008E5
:1008B000086000404C0000204C5C0040704710B4C1
:1008C00050F8041B81B102681218001D50F8043B57
:1008D000DC0744BFA9F10104E31852F8044B43F8C4
:1008E000044B091FF9D1EBE710BC70474FF6F871C4
:1008F0000840DFF858110860704710B5DFF8502144
:1009000052F8203048F68F142340194314E010B5F4
:10091000DFF83C2152F8203048F6BF742340CC0663
:1009200048BF83F01003890648BF83F02003FFE728
:1009300043F4004141F0800142F8201010BDDFF87F
:10094000101151F820204BF68F731A4082F4405258
:1009500042F4004209E0DFF8F81051F8202048F690
:100960008F631A4042F40042FFE742F0800241F8F0
:1009700020207047DFF8D81051F8202052040AD503
:1009800051F8202048F68F731A4042F4404242F05A
:10099000800241F8202070472D4951F8202052064E
:1009A0000AD551F8202048F68F731A4042F40042CD
:1009B00042F0C00241F82020704731E0234A12681B
:1009C00092B202EBC000234A30E034E01F490968CC
:1009D00089B201EBC0001F4933E01C4A126892B291
:1009E00002EBC0001C4A23E0184A126892B202EBE4
:1009F000C0001A4A02EB40003F2909DB4A091F23C5
:100A0000194208BF521E1204910941F4004105E049
:100A10004A08C90748BF521C120491090160704777
:100A20000A4A126892B202EBC0000D4A4908490016
:100A300042F8101070470549096889B201EBC000FF
:100A4000074951F8100080B270470000505C004028
:100A5000005C004008600040046000400C60004002
:100A6000006000400106090C41EA1020704710B5F3
:100A7000490001F18041521C01F5C041521009E0CA
:100A800010F8013B10F8014B43EA042321F8023B24
:100A9000891C521EF4D110BD490001F18041521C45
:100AA00001F5C041521004E051F8043B20F8023B2C
:100AB000521EF9D1704750F8041B61B150F8042B55
:100AC000D30744BFA9F101039A18002342F8043B5D
:100AD000091FFAD1EFE77047DFF8DC130A684FF619
:100AE000FF031A4000F0070042EA0020DFF8CC23A1
:100AF000104308607047012100F01F029140DFF8A9
:100B0000C023FFE7400942F8201070470901002880
:100B100007D5DFF8B02300F00F00801800F8041CA0
:100B20007047DFF8A42381547047DFF8A41381B025
:100B30000A6842F480320A6000200A6822F48022A7
:100B40000A604FF40062ADF800200A68920308D4EE
:100B5000BDF80020521EADF8002092B2002AF4D158
:100B6000012001B07047DFF8681381B00A6842F0D5
:100B700080720A6000204FF40062ADF800200B681C
:100B80009B0108D4BDF800305B1EADF800309BB26D
:100B9000002BF4D102204B6843F002034B60ADF808
:100BA000002058B94A68120708D4BDF80020521E28
:100BB000ADF8002092B2002AF4D1032001B07047B2
:100BC00038B5DFF80C530446286840F0010028606F
:100BD00028688007FCD56868DFF8F812084068606C
:100BE000DFF8F412286808402860286820F4802084
:100BF0002860686820F4FE0068600020A860FFF7A5
:100C000094FF4FF44031182C02D0302C03D005E073
:100C10004FF4302104E0DFF8C41201E04FF0FF3060
:100C2000DFF8BC32312CA8BF122203DA192CACBF7A
:100C3000112210221A60002868680EBF084340F491
:100C4000201040F080006860FFF78DFF00B1302475
:100C5000DFF87802047018214170C17081700C2196
:100C60000171007832BDDFF87C02016841F4800137
:100C700001607047DFF8700201210160DFF86C123B
:100C800081601D214160704710B500F01DF8012101
:100C90002A20FFF73BFF2A20FFF72DFF00F024F862
:100CA00003211420FFF732FF1420FFF724FF08214F
:100CB0000A20FFF72BFF00F015F810206061206874
:100CC00040F01000206010BDDFF82442DFF824124D
:100CD000002020606060E060A0604FF0006008606D
:100CE0000320F9E60A2006E74FF480206061A06047
:100CF00020607047DFF8F8110A6802430A600A6949
:100D0000104308617047DFF8F01108607047DFF8A2
:100D1000EC01DFF8EC21012101614FF480614161B8
:100D2000DFF8E01141604FF044310160DFF8D80195
:100D3000DFF8D8114160DFF8D81101604FF48071FD
:100D400041614FF400714161DFF8C8114A6000222F
:100D50000A604FF4004101617047016170474161D1
:100D60007047DFF8B401DFF8B4110160DFF8B011AB
:100D700001607047DFF8AC01016841F0800101605B
:100D8000704701B40020DFF8A0110A68D2070CD523
:100D90000A6812F0140F18BF0120009A521E009228
:100DA00002D00028F1D000E00120096811F0140FF2
:100DB00018BF012001B0704770B5DFF86C41DFF853
:100DC0006C610546206840F0340020603046FFF733
:100DD000D8FF78B9606840F002006060A560606884
:100DE00040F0400060603046FFF7CBFF616821F0C3
:100DF0000201616070BD2DE9F042DFF82C6104460C
:100E0000306840F03400306040F275190D4600F053
:100E100020F8070014D1706840F001007060258050
:100E200000F017F8070004D1280C608000F011F8DA
:100E300007460FB100F00DF8706840084000706080
:100E4000002F01BF01272068A84200273846BDE8CF
:100E5000F082484695E73648016841F480710160A8
:100E600070473348016821F4807101607047314A4E
:100E7000012806D00CD3032807D004D3042806D0B9
:100E80007047118070479180704711817047918140
:100E900070470021274A012807D00BD3032808D028
:100EA00005D3042808BF918904E0118802E09188E5
:100EB00000E01189084670470CED00E00000FA05DB
:100EC00000E100E018ED00E000E400E0D8000020C0
:100ED000001002400C00FFFFFFFFF6FE80001B0029
:100EE0000020024004100240141002400400A01828
:100EF0000004014008ED00E0140401400008014036
:100F00000600206422F24744000C014064FF428442
:100F1000444444FF0010014004200240230167457F
:100F2000AB89EFCD102002400C200240A9A00100A7
:100F300000700040046C0040002818BF00F067B942
:100F400000F060B980B5AA4909680020C87200F0B5
:100F5000EBF900F0DBFA0020A649086001BD00B5FE
:100F600083B001A900A800F0FCFAA14802680021A2
:100F7000D1720268117300990268C9795172002117
:100F8000006881720020FFF7B1FC4FF4007100206F
:100F9000FFF7B3FC10210020FFF7B9FC1821002057
:100FA000FFF70CFD78210020FFF707FD0020FFF779
:100FB000D2FC914890F82C100020FFF715FD00207E
:100FC000FFF7BDFC0020FFF73BFC8A4901200860C9
:100FD00007BD8A48C07A10B186490520086070476D
:100FE000844904200860704780B500F053FBBDE8D9
:100FF000014000F011B9704738B57D4A12680021F0
:1010000013780446062C04BF03F07F05012D0CD194
:10101000507958BB9078222808BF0FF2351123D0A1
:10102000212823D10FF23D111EE003F07F05212D71
:101030000ED1012809D0032804D0092808BF0FF2D7
:101040003D0111E00FF295110EE00FF285010BE06A
:1010500003F07F00412808BF342C07D19088B0F5F9
:10106000806F03D00FF20911080001D1022032BDB8
:101070009161002050828847002032BD70B55C4CE1
:10108000216878B98878022803D1C87800F03EFB3F
:1010900004E0032804D1C87800F02CFB2168088202
:1010A000002070BDC8880882CE78304600F01DFB55
:1010B00020688078022803D1304600F021FB04E04C
:1010C000032803D1304600F013FB0546284670BDC7
:1010D00010B5474C21688A7870B9012A03D1C878C5
:1010E0000020C04604E0032A04D1C87800F002FBC7
:1010F00021680882002010BD012A04D1BDE81040FB
:10110000C87800F0FBBA032A04D1C878BDE81040C3
:1011100000F0EEBA10BD36490968097801F07F0188
:10112000212903D10B2808BF00F051B802207047D5
:101130001CB500F013F800F008FA04E01CB500F04C
:101140000DF800F00EFA00A92046FFF716F916BDBB
:101150001CB500F003F800F00EFAF4E7044601A90C
:1011600000A870471CB5FFF7F9FF00F0FFF9EAE7A8
:101170001CB5FFF7F3FF00F0EEF9E4E71CB50446F9
:101180001B480068C078B0B101280FD0022818BFF2
:10119000032806D0EE2813D101A900A800F0DAF93F
:1011A0000DE001A900A800F0C4F908E001A900A819
:1011B00000F0BAF903E001A900A800F0C1F9C2E704
:1011C000002016BD00290CBF0028022070470848E7
:1011D0000B490068C07808600020704728B90449AE
:1011E0000968012008820020704705487047000008
:1011F000100500201C0500204C000020F4040020F5
:101200005C0500204FF480613B4800F0A1BA4FF428
:101210008061394800F09ABA102000F093BA70B596
:10122000044600250E19FFF79CFD05E02046FFF758
:10123000C3FD054604F58064B44201D2002DF5D00B
:10124000BDE87040FFF796BDF8B50446FFF703FE12
:10125000002100250E460F46012C07D14FF6ED6107
:101260004CF6FE254BF6BE264BF6EF670120FFF746
:10127000FEFD29460220FFF7FAFD31460320FFF765
:10128000F6FD39460420FFF7F2FDBDE8F140FFF717
:10129000E8BD80B50120FFF7FCFD4FF6ED61884207
:1012A00001D1012002BD022002BD0220CCE780B5A1
:1012B000FFF7EFFF012818BF002002BD80B5FFF740
:1012C000E8FF022801D1012002BD002002BD0B4829
:1012D0000B4A41685118B1F5DE3F9EBF0168A1F18C
:1012E0000051B1F5804F00D800E0704741680068B8
:1012F00080F3088808470000000801400024000827
:1013000000DCFFF7012100F01F029140744A400900
:1013100042F82010704774497248C97A002914BFF6
:10132000052101210160704780B50120FFF704FE0F
:101330006E486F4A012101600021016041604FF455
:10134000E0511180016000F0ABF9002002BDF8B55A
:101350000021664C6748634D0091226850F82130A7
:1013600005EB81069BB2491C73600829F6D342F451
:10137000806189B221604FF6FE7241F00101216067
:101380001140216062685205FCD54FF6FF32626061
:10139000002205EB82035B689BB240F82230521CAE
:1013A000082AF6D341F008002060534E2068534FBE
:1013B00040F0040080B220603068009030688008FF
:1013C00080003060386840F00400386000F07BF93D
:1013D0006068C00407D40320286030BF386820F05C
:1013E00004003860F1BD00F033F81E20FFF78AFFDB
:1013F0004EF6FF7060604FF6F7712068084020607D
:1014000000983060386820F004003860BDE8F14092
:1014100000F046B910B500F01BF800F041F9FFF7F5
:1014200084FB08B1FFF781FBFFF79DFB08B1FFF7D5
:101430009AFB4FF6FB712D4C206808402060FFF7A7
:101440006AFF4FF43F4020601E20BDE8104059E77E
:101450002B482C4A016811400160704710B52A4C96
:10146000072818BF207021782048052935D8DFE8E3
:1014700001F0030A10141B25207910B9FFF7CAFFE9
:101480002BE005202AE0FFF7C5FF04202070012093
:1014900021E002206070032020E06078401E607030
:1014A0006078E0B9042019E0016841F0100189B2C8
:1014B0000160052020700A20607010BD6178491E0F
:1014C0006170617859B901684FF6EF72114001609F
:1014D000062020700020207110BD0620207010BD55
:1014E00000E100E01C050020F4040020405C004006
:1014F00052050020005C00400070004010ED00E04C
:1015000000040140F67FFFFF4C0500200448054A17
:10151000002141604FF43F4111800160002070477D
:10152000405C0040520500200FF2AC020260262011
:1015300003E00FF2CC0202601C20088000207047FC
:101540000FF2900202600420F7E70FF2340202600B
:101550001220F2E700E000BF0022026000200880B5
:1015600070470FF2300202601B20E6E70FF23602EE
:1015700002600920E1E70FF2380202602220DCE776
:1015800012010002000000408304D09134000102E7
:101590000301000009021B00010100E03209040000
:1015A00000000300000009211001000122220000B8
:1015B0000600FF0901A1010902150026FF007508B8
:1015C000953F91020903150026FF0075089503B1A8
:1015D00002C00000040309042603530054004D0018
:1015E0006900630072006F0065006C0065006300B5
:1015F000740072006F006E006900630073000000E9
:101600001C03530054002000530065006E0073005B
:101610006F00720020004800750062002F48002112
:101620000170012141700021418070472B49012048
:101630004870704729490220487070472748407811
:10164000012818BF0020704724484078022801D1A3
:10165000012070470020704720484088C0F3C00038
:1016600070471E484088C0F3001070471B484088F0
:10167000C0F34010704719484088C0F3801070478D
:10168000164840880006C00F704714484088C0F3D1
:10169000C20070471148418841F0100141807047F5
:1016A0000E48418841F0400141807047114041801F
:1016B00070470A4841884FF6EF72F7E707484188BC
:1016C0004FF6DF72F2E7054841884FF6BF72EDE74B
:1016D000024841884FF6C772E8E70000E0000020AA
:1016E00000F04CB804480078704703490870704710
:1016F00000F046B800F046B86005002000207047B2
:10170000002808BF00F040B800207047002808BF3C
:1017100000F03CB800207047002808BF00F040B837
:101720007047000080B500F015F83020FFF748FA48
:10173000FFF799FAFFF79EFAFFF7A6FABDE8014016
:10174000FFF7E5BAFFF7D6BAFFF7DDBAFFF705BB3B
:10175000FFF705BB80B5FFF761FFFFF7AFFD00287E
:101760001CBFBDE80140FFF765BFBDE80140FFF7C2
:101770005DBFFFF7F6BAFFF73EBB000000F064B8AC
:1017800000F068B800F068B800F068B800F068B819
:1017900000F06EB800F06EB800F077B800F06EB8E8
:1017A00080B500F062F801280CD002281CD0032874
:1017B00021D004282BD0052837D0062814D00A2899
:1017C00025D001BD00F065F808B903201BE0022018
:1017D00000F054F800F0ABF800F044F807282AD0E5
:1017E00000F062F801200EE0042000F047F8BDE8A8
:1017F000014000F081B8062000F040F800F0D5F874
:1018000000F03FF80820BDE8024000F037B8FFF7CD
:101810004CFDBFF34F8F0848084A016801F4E061AE
:1018200011430160BFF34F8FFEE7BDE80440044958
:101830000448FFF7A0BF01BD0CED00E00400FA056D
:1018400078563412002000081E4801218170C170B2
:10185000017170471C487047032070471B48704750
:101860003F2070471748807870471648007A7047C5
:1018700017487047134890F8460070471149887020
:1018800070471049A1F8030070470E4890F82000F7
:1018900070470C498A7A0B7900209A4201BF4A7A34
:1018A000C9788A420120704706480179491C0171B4
:1018B000C9B2132904D101210171C178491CC17039
:1018C00070470000000000200200002008000020F7
:1018D0000B0000204E484F49016000218180FFF736
:1018E0004DBF80B54C484D490068884202D1FFF792
:1018F000DEFC00B1012002BD80B54FF4E83146485E
:10190000FFF78DFCFFF735FFBDE80140E2E770B55A
:10191000044600253E4E29593068FFF72CFF3068F9
:10192000001D2D1D3060B5F5806FF4DB70BD38B53E
:101930000025FFF72DFF364CA18840F2EB32914293
:1019400029460CDA00F026F83B29FBDBFFF722FFE3
:1019500085F0FF01491CC9B288421AD014E000F09A
:1019600019F81529FBDBFFF717FF85F0FF01491C6C
:10197000C9B2884208D10020A0800520FFF70EFFE1
:10198000A01DBDE83240C2E7BDE832400720FFF7A6
:1019900005BF31BDA3880A5C1B1955199A71491CF2
:1019A000A288521CEDB2A2807047F0B5184E1949BA
:1019B000366800200022072304460546B0F5004F94
:1019C0001FDA4004000CB14204D24DB911F8012BCA
:1019D000012506E008BF002D02D10022641C14E09E
:1019E0009DB1002B06D442FA03F707F0010738181F
:1019F00080B25B1E5BB213F1010F06D107230025F5
:101A000003E080F4004080F005000F2CD6DBF0BD31
:101A1000EC00002000240008002000087856341252
:101A20002DE9F84F0020ADF8000048F28004464D43
:101A3000464EDFF81C91DFF81CA148F60F7840F6FF
:101A40008F7B4BF6BF7725E056F82010ADF80010DD
:101A5000BDF8001009040BD556F820100BEA01015F
:101A600046F820103C4901EB800050F8040C8047F8
:101A7000BDF8000000060DD599F8000056F82010BA
:101A800008EA010146F82010344901EB800050F8C3
:101A9000040C8047706CAAF80000000452D5BAF814
:101AA000000010F00F0089F80000CDD130682880C8
:101AB000288800F030006880288800F44050288092
:101AC0003068384080F4005080F0200020433060BF
:101AD000BAF80000C006306805D408EA000030609B
:101AE000FEF757FE16E0ADF80000BDF80000000557
:101AF00006D530680BEA00003060FEF716FE09E0FC
:101B0000BDF800000004C5D530680BEA0000306065
:101B1000FEF75EFE306829883840C90448BF80F46B
:101B200080502988890448BF80F400506988C9061C
:101B300048BF80F010006988890648BF80F0200007
:101B400020433060BDE8F18F58050020005C004064
:101B50006205002040050020BC000020A0000020FD
:101B60002DE9F041454D464E464F88B068683080BB
:101B70000024308839880840000448BFFFF750FF30
:101B80003088398808404FF6FF38400504D53E4874
:101B9000C5F804804068804738883188014089044E
:101BA00044BF4DF6FF71696031880840C00405D517
:101BB0004EF6FF7068600020FFF750FC30883988CF
:101BC000084000050ED53148007828B12868C006C5
:101BD00005D4FFF7BCFB02E00220FFF73FFC4FF209
:101BE000FF706860388831880140890544BF4FF62E
:101BF000FF51696031880840C0053CD54FF6FF6051
:101C00006860A868000431D57068401C7060706816
:101C100004282DD3286800072AD4286880B2B06031
:101C200000A91B4850F8242092B241F82420641CDB
:101C3000082CF7D3B26842F00102B260B26892B2E7
:101C40002A60B26852085200B260B26892B22A604A
:101C50006A685205FCD5C5F80480002451F8242098
:101C600092B240F82420641C082CF7D30020706046
:101C70000720FFF7F3FB08B0BDE8F081405C0040AF
:101C800040050020520500204C000020E800002004
:101C9000005C004010B5074979441831064C7C447B
:101CA000163404E00A68081D511888470146A1420D
:101CB000F8D110BD0800000028000000FBEDFFFF78
:101CC00078040000EC00002000000000F3EBFFFFB0
:101CD000EC000000C0010000000000200000000037
:101CE0000448054AC061022101724262034901624F
:101CF00008680047F40400207C0000204C0000200D
:101D000080B5FFF7EEFD08B9FFF7E1FAFFF70AFD2E
:101D1000FFF7E6FCFFF7E4FFFEE700000120C04606
:101D2000002801D0FFF7B6FF0020C046C046FFF7ED
:101D3000E7FF00F000F800F001B800000746384661
:101D400000F002F8FBE7000080B5C046C046024A3A
:101D500011001820ABBEFBE726000200C046C046BB
:101D6000C046C046FFF7DAFF004800475D1D000887
:101D7000FFF7FEBF012100F01F0291403F4A4009DA
:101D800042F820107047FEE7FEE7FEE7FEE7FEE7B9
:101D90007047704770477047FFF7E2BE38494FF40D
:101DA00080200860704736480068C00600D470473D
:101DB00070B5FFF751FC002846D0FFF789FCFFF70C
:101DC0005AFC002840D1FFF75BFC00283CD12120C1
:101DD000FFF7D0FF2220FFF7CDFF0F20FFF7CAFF4C
:101DE0002020FFF7C7FF1E20FFF7C4FF0720FFF7E3
:101DF000C1FF0A20FFF7BEFF224C2046FFF7A4FCDC
:101E0000214D224EFFF71AFC10B1FFF757FA04E0FC
:101E1000FFF71AFC18B1FFF74AFA00B12E601C4810
:101E2000416841F480714160016841F00401016042
:101E3000016841F002010160686840F004006860D8
:101E40002046FFF781FC30BFFFF70BFC40B1FFF7E6
:101E500030FCFFF747FCFFF75FFC0020FFF745FC75
:101E6000FFF704FC08B1FFF729FCFFF70EFC20B9CF
:101E7000BDE870401020FFF767BC70BD80E100E056
:101E800014040140FFFF0F000CED00E00100FA0513
:101E90000070004005000101010041000000000049
:101EA0000000000000000000000000000000000032
:101EB0000000000000000000000000000000000022
:101EC0000000000000000000000000000000000012
:101ED0000000000000000000000000000000000002
:101EE000450F00085F0F0008E90F0008F70F000812
:101EF000F90F000817110008C5110008311100087A
:101F00003D1100087D1100080000000040000000A5
:101F1000BD080008D30F0008BD080008BD08000870
:101F2000BD080008BD080008BD080008BD0800087D
:101F3000E10F0008BD080008BD080008BD08000842
:101F4000BD080008BD080008BD080008BD0800085D
:101F5000BD080008BD080008BD080008BD0800084D
:101F6000BD080008BD080008BD08000808080808EA
:101F70000400000000010000020100000100000058
:101F8000FFFFFFFFFFFFFFFFFFFFFFFFFFFFFFFF61
:101F9000FFFFFFFFFFFFFFFFFFFFFFFFFFFFFFFF51
:101FA000FFFFFFFFFFFFFFFFFFFFFFFFFFFFFFFF41
:101FB000FFFFFFFFFFFFFFFFFFFFFFFFFFFFFFFF31
:101FC000FFFFFFFFFFFFFFFFFFFFFFFFFFFFFFFF21
:101FD000FFFFFFFFFFFFFFFFFFFFFFFFFFFFFFFF11
:101FE000FFFFFFFFFFFFFFFFFFFFFFFFFFFFFFFF01
:101FF0003400FFFFFFFFFFFFFFFFFFFFFFFFFFFFBB
:1020000078563412FFFFFFFFFFFFFFFFFFFFFFFFC8
:10201000FFFFFFFFFFFFFFFFFFFFFFFFFFFFFFFFD0
:10202000FFFFFFFFFFFFFFFFFFFFFFFFFFFFFFFFC0
:10203000FFFFFFFFFFFFFFFFFFFFFFFFFFFFFFFFB0
:10204000FFFFFFFFFFFFFFFFFFFFFFFFFFFFFFFFA0
:10240000003C0020652500086D2500086D250008AA
:102410006D2500086D2500086D25000800000000EE
:102420000000000000000000000000006D25000812
:102430006D250008000000006D2500086D250008CE
:102440006D2500086D2500086D2500086D25000824
:102450006D2500086D2500086D2500086D25000814
:102460006D2500086D2500086D2500086D25000804
:102470006D2500086D2500086D2500086D250008F4
:102480006D2500086D2500086D2500086D250008E4
:102490006D2500086D2500086D2500086D250008D4
:1024A0006D2500086D2500086D2500086D250008C4
:1024B0006D2500086D2500086D2500086D250008B4
:1024C0006D2500086D2500086D2500086D250008A4
:1024D0006D2500086D2500086D2500086D25000894
:1024E0006D2500086D2500086D25000880B5094898
:1024F0004168006801F07F42B2F1006F04BF00F054
:102500007042B2F1005F02D180F30888884730BF83
:10251000FDE700BF002800080120C046002801D0C8
:10252000C046C0460020C046C046FFF7DFFF00F0AF
:1025300000F800F001B800000746384600F002F845
:10254000FBE7000080B5C046C046024A11001820D3
:10255000ABBEFBE726000200C046C046C046C046F0
:10256000FFF7DAFF0048004759250008FFF7FEBFD4
:10257000FFFFFFFFFFFFFFFFFFFFFFFFFFFFFFFF6B
:10258000FFFFFFFFFFFFFFFFFFFFFFFFFFFFFFFF5B
:10259000FFFFFFFFFFFFFFFFFFFFFFFFFFFFFFFF4B
:1025A000FFFFFFFFFFFFFFFFFFFFFFFFFFFFFFFF3B
:10280000F83F0020CD9F0108B5970108B797010850
:10281000B9970108BB970108BD97010800000000A7
:10282000000000000000000000000000BF97010849
:10283000C197010800000000C3970108C59701086F
:10284000D59F0108D59F0108D59F0108D59F010894
:10285000D59F0108D59F010807980108D99901085B
:10286000D59F0108D59F0108F1980108D59F01085F
:10287000D59F0108D59F0108D59F0108D59F010864
:10288000D59F0108D59F0108D59F0108D59F010854
:10289000F9970108D59F0108D59F0108D59F010828
:1028A000D59F0108D59F0108D59F0108D59F010834
:1028B000D59F0108D59F010855980108D59F0108AB
:1028C000C7970108D59F0108D59F0108D59F01082A
:1028D000D59F0108D59F0108D59F0108D59F010804
:1028E0002D980108D59F0108FD9701082DE9F041B9
:1028F00083B0034602EBC20001EB800454F82200CF
:10290000002103F0F1FC38BF80F0004000900192FC
:1029100002921546092A1CDA164604EB8607D7F8F8
:1029200000804046002103F0DFFC38BF88F00048FB
:102930000098414603F0D8FC03D2CDF80080019501
:102940000296761C3F1D092EE9DB6D1C2434092DEF
:10295000E2DB00A816C816C30C3803B0BDE8F0814E
:102960002DE9F14FA4B00D4616462868314603F014
:10297000CDFC28602869314603F0C8FC2861286A2C
:10298000314603F0C3FC286220AFA8464FF003098C
:1029900000203860D8F80460D8F8080058F80CAB6C
:1029A000014603F037FD04463046314603F032FD60
:1029B00006465046514603F02DFD002103F096FDDA
:1029C000314603F093FD214603F090FD47F8040BD8
:1029D000B9F10109DCD12098002420AB596803F03B
:1029E00083FC3CBF08460124996803F07DFC38BF96
:1029F000022403200290601C032190FBF1F101EB03
:102A00004101461AC4F10300871B05EB86000190C3
:102A100005EB8400D0F81880D0F80C900198C068BD
:102A2000414603F0F7FC824601988069494603F06D
:102A3000F1FC0146504603F069FC029055F826B0BF
:102A400055F8240006905846414603F0E3FC8246C0
:102A500006990198806903F0DDFC0146504603F0B9
:102A600055FC82465846494603F0D4FC83460699F5
:102A70000198C06803F0CEFC0146584603F046FCBE
:102A8000014603F0C7FC83465046514603F0C2FCA2
:102A9000594603F02BFD82460299084603F0BAFC22
:102AA000514603F023FD1DA941F8260005EB8700E0
:102AB0000090C068414603F0ADFC824600988069F2
:102AC000494603F0A7FC0146504603F01FFC029064
:102AD00055F827B05846414603F09CFC82460699BB
:102AE0000098806903F096FC0146504603F00EFC06
:102AF00082465846494603F08DFC83460699009865
:102B0000C06803F087FC0146584603F0FFFB01460E
:102B100003F080FC83465046514603F07BFC594647
:102B200003F0E4FC82460299084603F073FC514628
:102B300003F0DCFC01461DA840F827100DF1580AEF
:102B40000DF1400B50F8260003F012FD07A84FF0DE
:102B50007E5100F2DC8040F8271055F824001090D8
:102B600055F82600CBF8040055F8270080F0004007
:102B70000390CBF808900198C068CBF80C0000983F
:102B8000C06880F000400490CBF810800198806904
:102B9000CBF814000098806980F0004005901099EF
:102BA000084603F037FC05464846494603F032FC28
:102BB000294603F09BFC05464046414603F02AFCAB
:102BC000294603F093FC0A901099DBF8040003F007
:102BD00021FC0546DBF80C00494603F01BFC2946A6
:102BE00003F084FC0546DBF81400414603F012FCB8
:102BF000294603F07BFC07460B970C97DBF8041083
:102C0000084603F007FC0546DBF80C10084603F005
:102C100001FC294603F06AFC0546DBF8141008465F
:102C200003F0F8FB294603F061FC0D900A9903F0CC
:102C3000F1FB05463846394603F0ECFB01462846D1
:102C400003F064FB05460D98294603F0A3FC16909B
:102C50003846294603F09EFC80F00047CAF804700D
:102C6000CAF808700A98294603F094FC0546CAF889
:102C70000C50DBF80410039803F0CCFB8246DBF821
:102C80000C10049803F0C6FB514603F02FFC82465B
:102C9000DBF81410059803F0BDFB514603F026FC49
:102CA00082461099039803F0B5FB83460498494681
:102CB00003F0B0FB594603F019FC814605984146E4
:102CC00003F0A8FB494603F011FC804616984146E4
:102CD00003F0A0FB81465046394603F09BFB494672
:102CE00003F004FC0E904046394603F093FB074680
:102CF0005046294603F08EFB394603F0F7FB0F9050
:102D000007A90E9A41F8242041F82600DAE040F89D
:102D1000261055F82400109055F82700CBF8040031
:102D200055F8260080F000400390CBF808900098FA
:102D3000C068CBF80C000198C06880F00040049097
:102D4000CBF8108000988069CBF814000198806956
:102D500080F0004005901099084603F05BFB0546A3
:102D60004846494603F056FB294603F0BFFB05469B
:102D70004046414603F04EFB294603F0B7FB0A905C
:102D80001099DBF8040003F045FB0546DBF80C0066
:102D9000494603F03FFB294603F0A8FB0546DBF854
:102DA0001400414603F036FB294603F09FFB06461C
:102DB0000B960C96DBF80410084603F02BFB054637
:102DC000DBF80C10084603F025FB294603F08EFBC8
:102DD0000546DBF81410084603F01CFB294603F0F7
:102DE00085FB0D900A9903F015FB054630463146E8
:102DF00003F010FB0146284603F088FA05460D98BB
:102E0000294603F0C7FB16903046294603F0C2FB63
:102E100080F00046CAF80460CAF808600A9829469B
:102E200003F0B8FB0546CAF80C50DBF80410039811
:102E300003F0F0FA8246DBF80C10049803F0EAFA8B
:102E4000514603F053FB8246DBF81410059803F05B
:102E5000E1FA514603F04AFB82461099039803F0C9
:102E6000D9FA83460498494603F0D4FA594603F048
:102E70003DFB81460598414603F0CCFA494603F0F4
:102E800035FB80461698414603F0C4FA8146504609
:102E9000314603F0BFFA494603F028FB0E90404646
:102EA000314603F0B7FA06465046294603F0B2FA17
:102EB000314603F01BFB0F9007A90E9A41F824201E
:102EC00041F82700099D089E0799084603F0A2FAD9
:102ED00004463046314603F09DFA214603F006FBD6
:102EE00004462846294603F095FA214603F0FEFAE7
:102EF00003F0CEFB04460798214603F04BFB0790F6
:102F00003046214603F046FB0746089728462146EF
:102F100003F040FB0990079A1A921B971C90249883
:102F20001AAAB2E88810A0E888100C3825B0BDE8CD
:102F3000F08F2DE9F04FADF56F7D82460C460FF610
:102F40008C301DA900F11C0268CA68C11AA968CAA0
:102F500068C117A934302CC82CC129A80FF6AC3190
:102F6000242203F0DFFB0027B846B9465546032666
:102F700055F8040B394603F0B9FA074655F8040B27
:102F8000414603F0B3FA804655F8080B494603F072
:102F9000ADFA814655F8040B394603F0A7FA074607
:102FA00055F8040B414603F0A1FA804655F8080B8A
:102FB000494603F09BFA814655F8040B394603F065
:102FC00095FA074655F8040B414603F08FFA804600
:102FD00055F8080B494603F089FA8146761EC7D199
:102FE0003846DFF8681B03F0D5FA05904046DFF855
:102FF0005C1B03F0CFFA04904846DFF8501B03F047
:10300000C9FA0390554603262868059903F07EF90E
:1030100028606868049903F079F96860A8680399E2
:1030200003F074F9A8602869059903F06FF9286125
:103030006869049903F06AF96861A869039903F063
:1030400065F9A861286A059903F060F92862686A41
:10305000049903F05BF96862A86A039903F056F9D2
:10306000A8623035761ECFD19EAD0926DAF8001061
:10307000084603F0CFF945F8040BDAF804100846C7
:1030800003F0C8F945F8040BDAF80810084603F015
:10309000C1F945F8040BDAF80000DAF8041003F07F
:1030A000B9F945F8040BDAF80000DAF8081003F073
:1030B000B1F945F8040BDAF80400DAF8081003F067
:1030C000A9F945F8040B5AF8040B45F8040B5AF813
:1030D000040B45F8040B5AF8080B45F8040B761E50
:1030E000C4D14FF4A2714DA803F048FB00204DA9B4
:1030F000012241F82020401C24310928F9DB002559
:1031000044A809909EA8029029A801909EA800902A
:103110004DA808902A469EA914A8FFF7E7FB159929
:103120001698099A149B1360A94227D001EBC1029B
:103130009EAB03EB8202009B03261768D3F800C006
:1031400042F804CB43F8047B1768D3F800C042F878
:1031500004CB43F8047B1768D3F800C042F804CBD3
:1031600043F8047B761EE8D1019A176829AA52F821
:103170002120019B1A6029AA42F82170A84236D06A
:1031800000EBC0014DAA02EB8101089A9EAB03EB54
:103190008000029B03260768D3F800C040F824CBC8
:1031A00043F8247BD1F80080176841F8047B42F88B
:1031B000048B0768D3F800C040F824CB43F8247B85
:1031C0000F68D2F800C041F804CB42F8047B0768CE
:1031D000D3F800C040F824CB43F8247B0F68D2F822
:1031E00000C041F804CB42F8047B761ED3D1681CA2
:1031F000691C092949DA29A901EB800600EBC00105
:1032000088000299411807919EA940180690C5F1BF
:103210000900A0F1010907980068009951F82510EC
:1032200003F0B8F90746A846069800EB880A00980C
:1032300000EB880BA84508BF002009D0DBF8000090
:10324000394603F0E7F80146DAF8000003F05EF8CB
:103250004AF8040B08F101080BF1040BB8F1090F4F
:10326000E8DB01980068394603F0D4F8014630687D
:1032700003F04CF846F8040B0698243006900798A3
:1032800024300790B9F10109C5D14FF07E50009963
:1032900051F8251003F07EF90746A846009800EB88
:1032A0008806A8450FBF4FF07E503068394603F0BE
:1032B000B1F846F8040B08F10108B8F1090FF0DB8A
:1032C00001980068394603F0A5F8019908606D1C63
:1032D0000898243008900098243000900198001D30
:1032E00001900298001D02900998001D0990092D77
:1032F000FFF610AF082531AEE6AF4FF0000816E03C
:103300004FF00008082D12DA07F120090DF1C40A68
:10331000C5F1080B59F804095AF8041903F07AF8B2
:10332000414603F0E3F88046BBF1010BF2D130686F
:10333000414602F0EBFF46F804096D1E243F002DC4
:10334000DED54DA832A90922002629AB05462F68F3
:103350000FB11F680F60761C6F6A0FB15F680F6056
:10336000761CAF6C0FB19F680F60761C6C350C3308
:10337000092EECDB091D001D521EE5D14FF07E55D4
:1033800044AE0327DFF8C887B068414603F002F96E
:1033900081467068414603F0FDF8824656F80C0BF2
:1033A000414603F0F7F8294603F034F8514603F09C
:1033B00031F8494603F02EF805467F1EE4D100217E
:1033C00002F092FF38BF85F0004532AE32994FF0DF
:1033D000814003F01FF807467068394603F01AF879
:1033E0008046F168084603F015F80146404602F0B1
:1033F0008DFF8046D6F8189032994FF0804003F048
:1034000009F88246F069514603F004F88346F068F3
:10341000494602F0FFFF0146584602F077FF06904A
:103420007069514602F0F6FF8346F168306902F098
:10343000F1FF0146584602F069FF029001464FF045
:10344000804002F0E7FF069902F0E4FF414603F0F6
:10345000A1F8019031694FF0804002F0DBFF49464E
:1034600002F0D8FF0090306A394602F0D3FF0146DF
:10347000009802F04BFF019903F038F80090B06813
:10348000394602F0C7FF07463169084602F0C2FF1D
:103490000146384602F03AFF07460299084602F014
:1034A000B9FF414603F076F80146384602F02EFF98
:1034B0004FF0804102F0AEFF0146009803F06AF839
:1034C00007463169F06802F0A5FF0146584602F050
:1034D0001DFF394602F09EFF414603F05BF883462C
:1034E0000698414603F056F8594602F0FFFF80F077
:1034F0000048F068414602F08DFF514603F04AF85B
:1035000083463069394602F085FF514603F042F8A0
:10351000594602F0EBFF83464846514603F03AF81D
:10352000594602F0E3FF80F0004A3298514602F01B
:1035300071FF514602F06EFF83467068414602F00B
:1035400069FF414602F066FF594602F0CFFF83460D
:10355000B068394602F05EFF394602F05BFF59461B
:1035600002F0C4FF8346F068514602F053FF414623
:1035700002F050FF594602F0B9FF834630695146C8
:1035800002F048FF394602F045FF594602F0AEFF0F
:1035900083467069414602F03DFF394602F03AFF2A
:1035A000594602F0A3FF83464846514602F032FFD7
:1035B000594602F09BFF8146F069414602F02AFF1E
:1035C000494602F093FF8146306A394602F022FFF5
:1035D000494602F08BFF01464FF07E5002F096FE06
:1035E00083460598514602F081FF069004984146B3
:1035F00002F07CFF02900398394602F077FF0190B9
:103600003298594602F0C6FF0E907068594602F093
:10361000C1FF07460F97B068594602F0BBFF8046CE
:10362000CDF840804FF08040594602F0F3FE01464D
:10363000F06802F0AFFF8146CDF844904FF0804033
:10364000594602F0E7FE0146306902F0A3FF8246C8
:10365000CDF848A04FF08040594602F0DBFE01460D
:10366000706902F097FF8346CDF84CB04FF07E5062
:103670000A900E98394602F039FF414602F036FFB3
:1036800080F000460B960E98394602F0C3FE039078
:103690000E98414602F0BEFE039902F027FF00900B
:1036A0003846414602F0B6FE009902F01FFF009036
:1036B0004846494602F0AEFE0146009802F026FE5A
:1036C00000905046514602F0A5FE0146009802F0D7
:1036D0001DFE00905846594602F09CFE0146009897
:1036E00002F014FE0C900E98594602F093FE5946D3
:1036F00002F090FE00904046494602F08BFE49469B
:1037000002F088FE009902F0F1FE00903846514622
:1037100002F080FE514602F07DFE009902F0E6FEC6
:1037200007460398414602F075FE0146384602F00E
:10373000EDFD07464FF08040494602F06BFE5146D2
:1037400002F068FE594602F065FE0146384602F076
:10375000DDFD8346CDF834B0002020A90EAA20ABB1
:10376000804603EB88074FEA400C0DF1380E0EEB54
:103770008C0C0CF1080C08EB480E01EB8E0E80450A
:1037800004D1D2F80090C7F8009005E0DCF8009072
:10379000C7F80090CEF8009008F101080EF10C0E69
:1037A0000CF1040C3F1DB8F1030FE8DB401C0C3397
:1037B000121D091D0328D3DB3046314602F02AFED4
:1037C00007460C99DFF8780E02F024FE01463846D1
:1037D00002F09CFD80460C98314602F01BFE074625
:1037E000DA48594602F016FE0146384602F08EFDD0
:1037F0000746394602F00EFE81464FF081404146B1
:1038000002F008FE8246DFF8380E314602F002FE72
:10381000594602F0FFFD83460C99084602F0FAFD76
:103820000146584602F072FD514602F0F3FD49464A
:1038300002F05CFE02F0A6FF82468B464046002165
:1038400002F0C8FF1CD1384602F0C4FF18D1069818
:103850002060029860600198A060DFF8E80DE060E9
:1038600020616061A56104F11C001DA92CC92CC058
:103870001AA92CC92CC017A91CC91CC0012020E101
:10388000504659460022002302F0B2FF80F0DF804C
:103890004FF07F51404603F020F981464FF08040C1
:1038A000414602F0B7FD314602F0B4FD8246DFF832
:1038B000900D394602F0AEFD0146504602F026FD5D
:1038C00007464FF08040494602F0A4FD01463846C5
:1038D00002F060FE03F004F9DFF8641D02F05AFE06
:1038E0000746404602F0D4FE01464FF0804002F009
:1038F00091FD81460121384603F046F9494602F020
:1039000089FD014686F0004002F000FDDFF8301D21
:1039100002F040FE8146404602F0BAFE8246012196
:10392000384603F031F983460021384603F02CF97C
:10393000DFF8141D02F06EFD594602F0D7FD514626
:1039400002F068FD314602F0E1FCDFF8F41C02F001
:1039500021FE8246404602F09BFE80460121384609
:1039600003F012F983460021384603F00DF9DFF821
:10397000D81C02F04FFD0146584602F0C7FC4146F4
:1039800002F048FD314602F0C1FCDFF8B41C02F041
:1039900001FE8046242220A917A802F0C3FE4A4651
:1039A00017A914A8FEF7DCFF242220A917A802F00B
:1039B000B9FE524617A907A8FEF7D2FF242220A974
:1039C00017A802F0AFFE424617A903A8FEF7C8FFEA
:1039D0004846002102F0CCFD72D2504602F0C8FDEC
:1039E0006ED2404602F0C4FD6AD2484602F050FE54
:1039F0000646504602F04CFE0746404602F048FE9E
:103A0000804606982060029860600198A0604FF0A0
:103A10007E50314602F0BEFDE0604FF07E503946E8
:103A200002F0B8FD20614FF07E50414602F0B2FD39
:103A30006061A56104F11C0014A92CC92CC007A960
:103A40002CC92CC003A91CC91CC0002039E0524657
:103A50005B460020002103F0B5F92FD1242220A9D4
:103A60003BA802F05FFEDFF83C0E314602F0D2FCCC
:103A700006463846414602F08DFD314602F036FDDD
:103A800002463BA903A8FEF76BFF06982060029848
:103A900060600198A060DFF8AC0BE06020616061BD
:103AA000A56104F11C0003A92CC92CC01AA92CC9BA
:103AB0002CC017A91CC91CC0022002E00B2000E08A
:103AC0000C200DF56F7DBDE8F08F000000000000B8
:103AD00000000000000000000000FA430000FA436C
:103AE0000000FA4300000000000000000000000099
:103AF00000000000000000000000000000000000C6
:103B00000000000000000000000000000000803FF6
:103B10000000803F0000803F0000803F0000803FA9
:103B20000000803F0000803F0000803F0000803F99
:103B3000DFF874CDCCF878300020CCF87C008CF81D
:103B40002000DFF8680D00218174704700001041EB
:103B500000004842FEB504461D461646084602F0DF
:103B600059FC07463046314602F054FC394602F013
:103B7000BDFC07462846294602F04CFC394602F0B7
:103B8000B5FC002102F026FE15D002F081FD0746AB
:103B9000002102F01FFE0ED00098394602F0FAFC18
:103BA00000903046394602F0F5FC0190284639462F
:103BB00002F0F0FC029000A80EC80EC40C3803B04E
:103BC000F0BD0EB42DE9F04185B004460BAD0BA855
:103BD0000FC885E80F001D4616460F46014602F045
:103BE00019FC80463846394602F014FC414602F082
:103BF0007DFC80463046314602F00CFC414602F026
:103C000075FC80462846294602F004FC414602F035
:103C10006DFC002102F0DEFD1AD002F039FD804675
:103C2000002102F0D7FD13D00B98414602F0B2FC00
:103C30000B903846414602F0ADFC0C9030464146B0
:103C400002F0A8FC0D902846414602F0A3FC0E901D
:103C50000B980C9D0D9B0E9A002102F045FB07D29C
:103C600080F0004085F0004583F0004382F0004280
:103C7000009001950293039200A82EC82EC410381C
:103C800005B0BDE8F0015DF810FB2DE9FF4F89B0EC
:103C90000AA8FFF75FFF16AB16A807C883E807005E
:103CA00016A890E80E00FFF755FF19AB19A807C832
:103CB00083E8070019A890E80E00FFF74BFF179D57
:103CC0004FF07E50294602F011FC199902F00EFCCB
:103CD00007460C9E314602F019FB0446002102F013
:103CE00003FB04D23046394602F010FB04464FF085
:103CF0007C50214602F08EFB02F0CAFC08900B9F1C
:103D0000DDF86C804FF07E50414602F0EFFB394603
:103D100002F0ECFB8146169902F0F8FA0446002105
:103D200002F0E2FA04D21698494602F0EFFA04468D
:103D30004FF07C50214602F06DFB02F0A9FC079089
:103D4000DDF860900A994FF07E5002F0CFFB4946B3
:103D500002F0CCFB0446DDF868A0514602F0D6FA2A
:103D6000002102F0C1FA03D25046214602F0CEFAF9
:103D70004FF07C5102F04EFB02F08AFC06904FF0AF
:103D80007E50294602F0C2FA199902F0AFFB314683
:103D900002F0ACFB0446002102F0A6FA38BF84F022
:103DA00000444FF07C50214602F034FB02F070FCDE
:103DB00004464FF07E50414602F0A8FA169902F0F0
:103DC00095FB394602F092FB0546002102F08CFA81
:103DD00038BF85F000454FF07C50294602F01AFBB1
:103DE00002F056FC01904FF07E500A9902F08EFAD4
:103DF000494602F07BFB514602F078FB0546002164
:103E000002F072FA38BF85F000454FF07C50294629
:103E100002F000FB02F03CFC009001250126012786
:103E2000384602F0DFFF069902F0F4FA8146304688
:103E300002F0D8FF079902F0EDFA8246494602F0F7
:103E400055FB214602F062FA4FF07C5102F0E2FA93
:103E500002904846514602F059FA214602F046FBCC
:103E60004FF07C5102F0D6FA8346CDF80CB02846CC
:103E700002F0B8FF804608984FF0804102F0CAFA7D
:103E8000414602F0C7FA514602F040FA494602F0B4
:103E90003DFA214602F02AFB4FF07C5102F0BAFABB
:103EA0008046CDF810805046494602F02FFA214650
:103EB00002F01CFB4FF07C5102F0ACFA8146CDF8C9
:103EC00014905846414602F011FB8246002102F050
:103ED0000BFA38BF8AF0004A5046019902F016FAF0
:103EE000002102F001FA39BF01985146504601996C
:103EF00002F00CFADFF8E81C02F0F6F921D2404695
:103F0000494602F0F3FA8046002102F0EDF938BF8D
:103F100088F000484046009902F0F8F9002102F0CC
:103F2000E3F939BF009841464046009902F0EEF9A6
:103F3000DFF8AC1C02F0D8F903D26FF002073E465E
:103F40003546BF1E7FB217F1010FBFF669AFB61E2F
:103F500076B216F1010FBFF662AFAD1E6DB215F16C
:103F6000010FBFF65BAFB54204BFBE4217F1050FAC
:103F70000BD102A883B069460CC80CC10CC80CC197
:103F80000EBC0998FFF71DFE0BE04FF07E5002902B
:103F90000020039004900590099802A93CC93CC0F8
:103FA00010380DB0BDE8F08F2DE9F04FA7B0DFF865
:103FB000345C1FA82946192202F0B4FBDFF8280C54
:103FC0004FF07E510160002141608160C160DFF8E7
:103FD0001C0C4FF07E51016041608160DFF8C848E1
:103FE0004FF4FA706081A4F80F00A082642020735F
:103FF00000206073A07360746420A0740020E074DB
:10400000E08264202076BDF98B60BDF99010B1424A
:10401000B4BF30460846BDF98620904204DA104607
:10402000B14206DA0B4605E0B142B8BF3046F9DBD3
:1040300008463346934203DAB14202DA0E4600E004
:10404000164602F0CFFE0746304602F0CBFE014690
:10405000384602F09FFADFF8981B02F045F9C0F0ED
:10406000EB820FA8402102F089FB2D2628461FA9CC
:10407000032290F90C3091F90C7090F90DC091F970
:104080000DE00EFB0CFC07FB03C390F90E7091F9D9
:104090000EC00CFB0733002B0BD590F90D3090F9B7
:1040A0000CC0CCF1000C80F80CC05B4243737B4227
:1040B000837301F2050100F20500521ED9D1B5F952
:1040C0000A0002F08FFE129902F010FA1290B5F970
:1040D0000F0002F087FE139902F008FA1390B5F969
:1040E000140002F07FFE149902F000FA149095F982
:1040F0000C0002F077FE169902F0F8F9169095F987
:104100000D0002F06FFE179902F0F0F9179095F983
:104110000E0002F067FE189902F0E8F9189095F980
:10412000110002F05FFE199902F0E0F9199095F97B
:10413000120002F057FE1A9902F0D8F907461A97B2
:1041400095F9130002F04EFE1B9902F0CFF980465C
:10415000CDF86C8095F9160002F044FE1C9902F02F
:10416000C5F98146CDF8709095F9170002F03AFE36
:104170001D9902F0BBF98246CDF874A095F918009C
:1041800002F030FE1E9902F0B1F98346CDF878B006
:1041900005F21905761E7FF469AFDFF8045D129809
:1041A000294602F0F7F912901398294602F0F2F925
:1041B00013901498294602F0EDF9149016982946A8
:1041C00002F0E8F916901798294602F0E3F91790E3
:1041D0001898294602F0DEF918901998294602F03D
:1041E000D9F919903846294602F0D4F91A90404678
:1041F000294602F0CFF906461B964846294602F0AA
:10420000C9F907461C975046294602F0C3F9804673
:10421000CDF874805846294602F0BCF905461E9533
:10422000129802F0F9FD8246A4F80AA0139802F051
:10423000F3FD8346A4F80FB0149802F0EDFD81461B
:10424000A4F81490169802F0E7FD2073179802F076
:10425000E3FD6073189802F0DFFDA073199802F077
:10426000DBFD60741A9802F0D7FDA074304602F0AE
:10427000D3FDE074384602F0CFFDA075404602F051
:10428000CBFDE075284602F0C7FD20760FFA8AF0D4
:104290000FFA8BF1884214DA00A804F10A01052311
:1042A0005B1ECA5CC254FBD104F10A0004F10F0189
:1042B000052202F027FA04F10F0000A9052202F0FE
:1042C00021FAB4F90F000FFA89F1884212DA00A836
:1042D00004F10F01052202F015FA04F10F0004F1B8
:1042E0001401052202F00EFA04F1140000A90522BF
:1042F00002F018FAB4F90A00B4F90F10884214DA7F
:1043000000A804F10A0105235B1ECA5CC254FBD15C
:1043100004F10A0004F10F01052202F0F3F904F19F
:104320000F0000A9052202F0EDF9B4F9140002F023
:1043300059FD0546B4F90A0002F054FD0646294627
:1043400002F028F9DFF8A81802F012F900F27481DF
:10435000B4F90F0002F046FD0746294602F01AF9AB
:1043600005463046394602F015F9294602F000F9B3
:1043700000F28F8094F90C0002F034FD099094F95A
:104380000D0002F02FFD0A9094F90E0002F02AFDB4
:104390000B9009A890E80E00FFF7DCFB94F91600DB
:1043A00002F020FD069094F9170002F01BFD079023
:1043B00094F9180002F016FD089006A890E80E0087
:1043C000FFF7C8FB089F0B9EDDF81C800A9D09992A
:1043D000069802F01FF881462846414602F01AF876
:1043E000494602F083F881463046394602F012F819
:1043F000494602F07BF880F000490998494602F0EE
:1044000009F8069902F072F806904846294602F02B
:1044100001F8414602F06AF807904846314601F03B
:10442000F9FF394602F062F8089006A890E80E00FD
:10443000FFF790FB099FDDF81880DDF81C90DDF890
:1044400020A04846314601F0E5FF83465046294604
:1044500001F0E0FF0146584601F058FF0C9050462D
:10446000394601F0D7FF82464046314601F0D2FF7F
:104470000146504601F04AFF0D904046294601F0A2
:10448000C9FF05464846394601F0C4FF01462846A3
:104490008DE094F9160002F0A5FC069094F917003F
:1044A00002F0A0FC079094F9180002F09BFC089021
:1044B00006A890E80E00FFF74DFB94F90C0002F0FF
:1044C00091FC099094F90D0002F08CFC0A9094F98B
:1044D0000E0002F087FC0B9009A890E80E00FFF791
:1044E00039FB0B9F089EDDF82880079D06990998E7
:1044F00001F090FF81462846414601F08BFF494676
:1045000001F0F4FF81463046394601F083FF494609
:1045100001F0ECFF80F000490698494601F07AFF6F
:10452000099901F0E3FF09904846294601F072FF1E
:10453000414601F0DBFF0A904846314601F06AFF30
:10454000394601F0D3FF0B9009A890E80E00FFF761
:1045500001FB099FDDF82880DDF82C90DDF818A01C
:104560002846494601F056FF83463046414601F051
:1045700051FF0146584601F0C9FE0C9030463946BD
:1045800001F048FF06465046494601F043FF014608
:10459000304601F0BBFE0D905046414601F03AFF17
:1045A00006462846394601F035FF0146304601F0FF
:1045B000ADFE0E900CA890E80E00FFF7CBFA06A80F
:1045C00003AA0AC80AC2036813600CA86A460AC88C
:1045D0000AC20368136009A890E80E000FA8FFF74D
:1045E00054FBDFF804060FA96CC96CC0DFF8F805AE
:1045F00000684FF07E5102F0EDF81DD0DFF8EC05B9
:104600000160B4F90A0002F0EDFB0546B4F90F00B1
:1046100002F0E8FB0146284601F0BCFFDFF8CC15AC
:104620004860B4F9140002F0DDFB0146284601F0B1
:10463000B1FFDFF8B815886027B0BDE8F08F000043
:10464000000040400000FA43D7B3DD3F0FB42DE92E
:10465000F04F85B00FAC0FA80FC884E80F001446C8
:10466000214601F0D7FE83461099129801F0D2FE40
:1046700082460F99129801F0CDFE019010982146C4
:1046800001F0C8FE05461299084601F0C3FE064631
:104690002046214601F0BEFE07461099084601F06B
:1046A000B9FE81460F99084601F0B4FE804613AB6F
:1046B00013A807C883E807004046494601F016FFE3
:1046C000394601F023FE314601F020FE139901F036
:1046D000A1FE00902846019901F018FE4FF080419C
:1046E00001F098FE149901F095FE009901F0FEFE8C
:1046F00000905046594601F0F9FE4FF0804101F01C
:1047000089FE159901F086FE009901F0EFFE0290F6
:104710004046494601F0FAFD80460F99109801F095
:1047200079FE81461298214601F074FE04460198F4
:10473000294601F0DBFE4FF0804101F06BFE13993A
:1047400001F068FE05464046394601F0CFFE31468D
:1047500001F0DCFD149901F05DFE294601F0C6FE72
:1047600005462046494601F0D1FD4FF0804101F059
:1047700051FE159901F04EFE294601F0B7FE039057
:104780005046594601F0C2FD4FF0804101F042FE13
:10479000139901F03FFE05462046494601F0A6FE6A
:1047A0004FF0804101F036FE149901F033FE2946A6
:1047B00001F09CFE04464046394601F0A7FD314613
:1047C00001F094FE159901F025FE214601F08EFEC0
:1047D00004900E9802A91CC91CC00C3801F0D4BA70
:1047E0002DE9F8430EB48BB0044604A80BA92CC9DC
:1047F0002CC02D48406FDFF8181B01F075FD49D221
:10480000DFF8E40301680791D0F8049089F00041D3
:104810000891D0F8088088F000470997C66886F0AC
:1048200000450A950BA801AA0AC80AC203681360CA
:1048300007A883B069460CC80CC10CC80CC10EBCDB
:1048400004A8FFF703FFDFF8A4530499286801F0D8
:10485000E1FD04900599686801F0DCFD059006997A
:10486000A86801F0D7FD0690CDF82090CDF82480FF
:104870000A9604A801AA0AC80AC20368136007A816
:1048800083B069460CC80CC10CC80CC10EBC04A88E
:10489000FFF7DCFE04A80EC80EC40C380FB0BDE84C
:1048A000F0830000000080BF64040020E8040020C2
:1048B0000FB4F8B5DFF8F84BE06E01280CBF4FF0ED
:1048C00080454FF07E55E66F276FDFF8E80B3946DD
:1048D00001F0A0FD294601F09DFD314601F048FEA2
:1048E00005D93046DFF8D01B01F0FEFC27D20DF1D0
:1048F0001E010868C4F80600BDF818002080BDF845
:104900001A006080BDF81C00A0800020E066012035
:1049100084F820000DA80FC8A367E56F2567C4F8C9
:104920008050616FDFF8940B01F074FD294601F0AF
:104930001FFE18D8FFF738FBE06F606713E04FF0F9
:104940008140394601F066FD314601F0CDFC02D2CE
:10495000A06E972805DA3046DFF8641B01F008FEE8
:1049600001D80120E077F1BC5DF814FB2DE9FF4F81
:1049700091B007A8002100220B460EC0DFF8440BBF
:1049800090F91200012803D111A80FC8FFF7D0F841
:104990001498DFF81C1B896F401AB0F5617F08DCA2
:1049A000DFF80C0B006FDFF8201B01F013FF40F065
:1049B0009B80DFF8184B8B4DD5F8DC05214601F0C4
:1049C000E9FD02F029FAADF8280005F2DC5670681E
:1049D000214601F0DFFD02F01FFAADF82A00B068B1
:1049E000214601F0D7FD02F017FAADF82C000DF1C9
:1049F0002E07B069214601F0CDFD38603C26BDF997
:104A00002C0002F0EFF90090BDF92A0002F0EAF95B
:104A10008146BDF9280002F0E5F9804607AFB5F9F7
:104A2000000002F0DFF9414601F070FC002101F0C6
:104A30005BFC38BF80F00040079901F057FD0790FC
:104A4000B5F9020002F0CEF9494601F05FFC002101
:104A500001F04AFC38BF80F00040796801F046FD63
:104A60008246C7F804A0B5F9040002F0BBF900992A
:104A700001F04CFC002101F037FC38BF80F0004011
:104A8000B96801F033FD8346C7F808B005F219058F
:104A9000761EC4D10798214601F07CFD0790504650
:104AA000214601F077FD05467D605846214601F01C
:104AB00071FD0446BC600798294601F017FD2146A8
:104AC00001F014FDDFF8E819C86711A803AA0AC8A5
:104AD0000AC20AC80AC20AA984B068461C2201F0A8
:104AE00021FE0FBCFFF7E4FE15B0BDE8F08F0FB458
:104AF000F0B500233B221924DFF8785CD01800EBD6
:104B0000D07046100DF11A01086804FB0657D7F85B
:104B1000061001F05FFE01D130466DE1D7F80600C6
:104B20000DF11A07396801F0DFFB34BF3246334616
:104B3000D01A0228E2DA04FB0351D1F806000DF185
:104B40001A06316801F0D0FB38BF18460BD304FBBE
:104B50000251D1F806000DF11A03196801F0C4FBE7
:104B600034BF1046501C47E12DE9F04187B00024C6
:104B70003B25DFF8006CB046C4F13B07D8F80600CF
:104B8000D8F81F1001F0B0FB10D200A8414619223E
:104B900001F0B8FD404608F11901192201F0B2FDFB
:104BA00008F1190000A9192201F0ACFD08F219085A
:104BB0007F1EE3D1641C6D1EDDD107B0BDE8F0811E
:104BC000DFF8EC08002181660648DFF8AC1BC0F86E
:104BD000C915DFF8F0080021C16741747047000073
:104BE00018B7D138440800208C070020080800209E
:104BF0003333B33F0FB4F0B58BB0DFF8C85895F935
:104C0000110008B1FFF7DCFFBDF94A40642C79DBE5
:104C100040F21550844275DABDF94F10642971DBFA
:104C200081426FDABDF95420642A6BDB824269DA73
:104C3000A142B4BF20460846824209DAA142B8BF69
:104C4000204608DB084623469A4206DA144607E067
:104C50001046A142F7DA0B46F6E7A142B8BF0C4670
:104C600002F0C0F80646204602F0BCF80146304685
:104C700001F090FCDFF8041B01F07AFC42D9EE6FE2
:104C8000DFF8F04A3C2E3FDA192000FB064010A95D
:104C9000192201F037FD701CE8673C2832D1FFF77C
:104CA00063FF40F6FF70E86704F2DC550020A8605F
:104CB0006860C4F8DC05A86126463C27B6F9000008
:104CC00002F090F8D4F8DC1501F010FCC4F8DC0513
:104CD000B6F9020002F086F8696801F007FC686026
:104CE000B6F9040002F07EF8A96801F0FFFBA860A5
:104CF000D6F80610A86901F0F9FBA86106F21906BA
:104D00007F1EDBD1002076E0D4F8C9050DF1460204
:104D1000116801F02DFCF5D910A984B068461C2259
:104D200001F000FD0FBCFFF7E2FE05463C2DE9DA7D
:104D300003A804F2C351192201F0E4FC192000FB7E
:104D400005F63119C5F13B02424301F1190001F0AA
:104D5000D9FC301910A9192201F0D4FCBDF90C00BE
:104D600002F040F80146D4F8DC0501F0CFFAC4F8AF
:104D7000DC0504F2DC55BDF90E0002F033F8014603
:104D8000686801F0C3FA6860BDF9100002F02AF803
:104D90000146A86801F0BAFAA8600DF11200016896
:104DA000A86901F0B3FAA861BDF9400002F01AF851
:104DB000D4F8DC1501F09AFBC4F8DC05BDF942001B
:104DC00002F010F8696801F091FB6860BDF94400D9
:104DD00002F008F8A96801F089FBA8600DF146000F
:104DE0000168A86901F082FBA861DFF8C406816E42
:104DF000491C816601200BB0F0BC5DF814FB7FB547
:104E000008AC08A80FC884E80F000098089901F0C2
:104E10007DFA04460198099901F078FA054602984E
:104E20000A9901F073FA06462046214601F0F2FA8B
:104E300004462846294601F0EDFA214601F056FBCA
:104E400004463046314601F0E5FA214604B0BDE89B
:104E5000704001F04BBBFFB585B00024DFF8940C27
:104E6000056C002D18D4DFF8906CDFF8907C694653
:104E700005CE05C105CE05C1103E05A80FC8FFF738
:104E8000BEFF394601F030FA02D2012009B0F0BD70
:104E9000641C1036A542EADA002009B0F0BD00001B
:104EA000000034422DE9FF4F89B0DFF8484C94F9F7
:104EB000110000284ED0002504F14400059004F1B3
:104EC0001406DFF834BC0490049800EB850ADFF880
:104ED000280C00EB05182C20059900FB0519C5F1DD
:104EE0000B076946B8E8050005C1B8E8050005C12B
:104EF0009BE80F00FFF783FF49F82C0B4AF8040BDF
:104F00007F1EEED10020306004980168002001F07F
:104F1000EDFA30600498071D4FF00508306857F827
:104F2000041B01F0E3FA306057F8041B01F0DEFACD
:104F30003060B8F10108F1D16D1C04982C30049058
:104F40000BF1100B361D0598001D05900B2DBBDBDA
:104F500000206074626906AB1046A16901F0C4F9D3
:104F600003D200200690012002E0012006900020DC
:104F70005860022504F11C063068069904EB810193
:104F8000496901F0B1F902D20698586006956D1C86
:104F9000361D0B2DF0DB069DDFF85C0B00EB0510DA
:104FA00009A9B1E8C810A0E8C81004EB85081046AC
:104FB000D8F8441001F0AAF9606104F1180608F16C
:104FC00070074FF00509306857F82C1B01F09EF967
:104FD0003060706857F82C1B01F098F97060083643
:104FE000B9F10109EFD12C2000FB05FB04F14400CD
:104FF0000BEB000ADFF8006B08F144090B27694648
:1050000005CE05C105CE05C1DFF8EC0A00EB0510A1
:105010000FC8FFF7F4FE4AF8040B49F82C0B7F1E6B
:10502000EDD16169D8F8440001F060FA606104F1E3
:10503000180608F170074FF00509306857F82C1B67
:1050400001F054FA3060706857F82C1B01F04EFAEA
:1050500070600836B9F10109EFD10020C8F81400DA
:105060000BEB0406716C01F041FA04F1140141F8F4
:1050700025004836052704F1140050F8250056F89D
:10508000041B01F033FA04F1140141F8250004F186
:10509000140050F8250056F8041B01F027FA04F11B
:1050A000140141F825007F1EE5D168B2FEF779BFF3
:1050B0007FB4DFF8400A002101648174DFF8381AF8
:1050C00000AA78CA78C1002101740121417404B09A
:1050D00070BC70472DE9FF4184B0DFF8184A94F99D
:1050E000100018B104A80FC8FFF7E2FFDFF8085A54
:1050F00094F9120005EB00106A460AC80AC20AC8F1
:105100000AC204A80FC8FFF77AFEDFF8F41901F00D
:10511000EBF855D326680EAF0EA80FC887E80F002E
:10512000314601F0F3F8002101F0DEF803D23046F9
:105130000E9901F0EBF8DFF89063314601F0D4F8F6
:105140003ED36768DDF83C804046394601F0DEF822
:10515000002101F0C9F803D23846414601F0D6F8E3
:10516000314601F0C1F82BD3A768DDF840804046F6
:10517000394601F0CBF8002101F0B6F803D23846E9
:10518000414601F0C3F8314601F0AEF818D30EA83D
:105190004EC84EC4103C04A80FC8FFF75CFE78B997
:1051A000206C0A280FDA401C20640B2190FBF1F2DE
:1051B00001FB120005EB001104AAE8CAE8C1A074C3
:1051C0004FF0FF3004E004A80FC8FFF76BFEA07497
:1051D00008B0BDE8F0810EB4F0B584B00446DFF845
:1051E0002459DFF8246909AF09A80FC887E80F0020
:1051F0000DAF0DA80FC887E80F000998314601F0E0
:1052000009F907460D98294601F004F9394601F0DD
:105210006DF900900A98314601F0FCF807460E98A7
:10522000294601F0F7F8394601F060F901900B9832
:10523000314601F0EFF806460F98294601F0EAF8EA
:10524000314601F053F902900C98039000A82EC843
:105250002EC4103804B051E00EB4F0B58EB005463F
:1052600005A8002100220B460C461EC0DFF89C4812
:10527000944E13AF13A80FC887E80F0096F91000DB
:1052800048B113A88EC88EC4103C0FCC0FC6103C7A
:10529000103E00203074694605CE05C105CE05C11B
:1052A000103E13A80FC8FFF7AAFDDFF8641801F03D
:1052B0001BF814D213A801AA0AC80AC20AC80AC253
:1052C00083B068460ECC0EC0216801600C3C0EBC59
:1052D00009A8FFF780FF09A84EC84EC409E005A839
:1052E0008ECC8EC0103C13A88EC88EC6103E0FCE3A
:1052F0000FC405A81EC81EC510380EB0F0BC5DF85E
:1053000010FB6B4991F92000002281F820207047A2
:105310000000A0412DE9FF416A4C94F9130038B117
:105320000020C4F88000A06760672067E07428E070
:10533000D4F880000F2824DB0F2190FBF1F1C1EBA2
:105340000111401A00EB400104EB4105B5F91400CE
:1053500001F048FD0146206F00F0D8FF2067B5F945
:10536000160001F03FFD0146606F00F0CFFF60675F
:10537000B5F9180001F036FD0146A06F00F0C6FF38
:10538000A067D4F880600F2196FBF1F0C0EB00100D
:10539000301A00EB400104EB4107009801F03CFD9E
:1053A000B882019801F038FDF882029801F034FDCE
:1053B0003883B7F9140001F015FD216F01F096F85C
:1053C0008046C4F87080B7F9160001F00BFD616FDC
:1053D00001F08CF805466567B7F9180001F002FD89
:1053E000A16F01F083F80746A767701CC4F880001E
:1053F0000F284BDB2E4CDFF8AC6C4046314601F0F9
:10540000C9F88046B4F9000001F0ECFC01464046C2
:1054100000F07CFF80462846314601F0BBF8054687
:10542000B4F9020001F0DEFC0146284600F06EFFF0
:1054300005463846314601F0ADF80746B4F9040098
:1054400001F0D0FC0146384600F060FF07464046B8
:10545000414600F0DFFF06462846294600F0DAFF05
:10546000314601F043F805463846394600F0D2FF90
:10547000294601F03BF8DFF84C1C01F079F805D81B
:10548000607F18B100F0CEFD012000E0002004B0E4
:10549000BDE8F0810B4801210174DFF858160122A4
:1054A0000A7442748274C27401480021C177704743
:1054B000640400209A99993F0100C841CDCC8C3FEB
:1054C00001002043E80400200000C84200007042B0
:1054D0002DE9FF4FC5B04FF00008DFF8980C90F9A8
:1054E0001F0018B145A80FC8FFF7D4FF45A883B027
:1054F00069460CC80CC10CC80CC10EBC45A8FFF70E
:10550000ABFE4898002800F01B8152AC52A80FC88F
:1055100084E80F0052A86A460AC80AC20AC80AC22A
:1055200045A80FC8FFF7D6FD06464FF0FF3086426C
:1055300000F0068145A80FC8FFF7ECFE002840F0F8
:10554000FF800EAC267206F10B05701C8DF838003A
:10555000DFF81C6C04E09DF83800401C8DF8380022
:105560009DF93800A84280F2E4809DF8380000E000
:105570006078401C607094F90100A842EBDA00E00A
:10558000A078401CA07094F90200A842F0DA00E074
:10559000E078401CE07094F90300A842F0DA00E0E3
:1055A0002079401C207194F90400A842F0DA00E050
:1055B0006079401C607194F90500A842F0DAAFE010
:1055C0000EA821A9092210F9013B4FF00B0C93FB07
:1055D000FCFC4FF00B0E0EFB1C33DFF81CC50CEB74
:1055E0000313B3E80056A1E80056521EEBD111A9EF
:1055F00021A8FDF79EFC002840F08A80119801F058
:105600000BFCADF81C00129801F006FCADF81E0072
:10561000139801F001FCADF820000DF1220017995C
:105620000160149801F0F8FB8146ADF826901898B7
:10563000314600F0EFFE01F0EFFB8DF828001998DD
:10564000314600F0E7FE01F0E7FB8DF829001A98DB
:10565000314600F0DFFE01F0DFFB8DF82A001598DF
:1056600001F0DAFB8246ADF82BA01B98314600F022
:10567000D1FE01F0D1FB8DF82D001C98314600F0D1
:10568000C9FE01F0C9FB8DF82E001D98314600F0CF
:10569000C1FE01F0C1FB8DF82F00169801F0BCFB94
:1056A0008346ADF830B01E98314600F0B3FE01F0ED
:1056B000B3FB8DF832001F98314600F0ABFE01F0CD
:1056C000ABFB8DF833002098314600F0A3FE01F0CB
:1056D000A3FB8DF834000FFA89F000285FBF0FFAA2
:1056E0008AF000280FFA8BF0002811D445A803AAED
:1056F0000AC80AC20AC80AC207A984B068461C229E
:1057000001F010F80FBCFFF775FA08B14FF001086F
:10571000781CE07194F90770AF42FFF651AFA079A1
:10572000401CA07194F90600A842BFF641AF401C8E
:10573000EFE7B8F1000F03D045A80FC8FFF716F93F
:1057400049B0BDE8F08FDFF82C2A91875087002000
:105750005077506310879065D065106601201077F0
:10576000002090770120D0777047DFF8100B407F42
:105770007047000044080020000080BF01009040F6
:1057800030B504460D0001D1002030BD284601F09F
:1057900029FB0146204600F0FDFE01F03DFB684379
:1057A00001F020FB01462046BDE8304000F0AEBDD0
:1057B0002DE9FF4F87B0DFF8BC49A06D0590BDF81B
:1057C0002200A18E451AADF82250BDF82400E18ECA
:1057D000461AADF82460BDF82600218F471AADF8AF
:1057E0002670BDF91C0001F0FDFA8046BDF91E00CF
:1057F00001F0F8FA8146BDF9200001F0F3FA824683
:105800004046002100F0E6FF08BF4FF07E584846B2
:1058100000F0E0FF08BF4FF07E59504600F0DAFF7D
:1058200008BF4FF07E5A28B201F0DCFA054630B2CC
:1058300001F0D8FA064638B201F0D4FA07464046DD
:10584000414600F0E7FD83464846494600F0E2FD48
:10585000594600F04BFE01905046514600F0DAFDEB
:10586000019900F043FE00904046294600F0D2FD29
:1058700083464846314600F0CDFD594600F036FEDD
:1058800083465046394600F0C5FD594600F02EFECD
:10589000009900F07FFE80F0004B5846414600F032
:1058A000B9FD294600F022FE05465846494600F05B
:1058B000B1FD314600F01AFE06465846514600F04A
:1058C000A9FD394600F012FE04900198009900F0FD
:1058D00061FE80F0004B5846414600F09BFD41467A
:1058E00000F004FE07465846494600F093FD49463D
:1058F00000F0FCFD03905846514600F08BFD0290ED
:105900002846294600F086FD83463046314600F0A1
:1059100081FD594600F0EAFD83460499084600F0EF
:1059200079FD594600F0E2FD00F0B2FE83462846BC
:10593000394600F06FFD00900398314600F06AFD93
:10594000009900F0D3FD00900499029800F062FDE8
:10595000009900F0CBFD01903846394600F05AFD21
:1059600000900399084600F055FD009900F0BEFD37
:1059700000900299084600F04DFD009900F0B6FD38
:1059800000F086FE594600F045FD0146019800F002
:1059900001FEDFF8F01800F0EBFD98BF4FF07E50ED
:1059A00005D9DFF8E41800F09FFC38BF084601F085
:1059B00097F8DFF8C41800F02DFD834630464146C5
:1059C00000F028FD029900F025FD064628464946CC
:1059D00000F020FD029900F01DFD0146304600F068
:1059E00095FC05463846494600F014FD06460398E6
:1059F000414600F00FFD0146304600F087FC049957
:105A000000F008FD294600F071FD002100F0B0FD16
:105A100005D2DFF86C08594600F078FC8346494609
:105A2000404601F01BFA0146DFF848584FF4B476BF
:105A3000DFF83C0800F0EEFC294600F057FD29464F
:105A400000F054FD3146FFF79BFE06464FF4B47755
:105A5000DFF82C08594600F059FC314600F046FDAD
:105A60003946FFF78DFE0646B4F93A705D2078435B
:105A70006FF0630190FBF1F001F0B4F9014650467C
:105A800000F032FC22D24046002100F02DFC38BF4D
:105A900088F0004807EB07104000642190FBF1F00C
:105AA00001F0A0F902464046114600F01DFC0DD25F
:105AB0004846002100F018FC38BF89F000494846EC
:105AC000114600F011FC38BF059E0ED35046002150
:105AD00000F00AFC09D24FF4B4773046294600F0B2
:105AE00005FD3946FFF74CFE0646A6650BB0BDE83E
:105AF000F08F0000000000205C10002000401C46D9
:105B000000C8AF46D0CCCC3D6666663FE8120020A8
:105B10000100C8430FB42DE9F04F85B0DFF85446BB
:105B20000FAD0FA80FC885E80F00BDF93C0001F0CC
:105B300059F90190206C019900F0E8FB074600211B
:105B400000F0D2FB04D20198216C00F0DFFB074685
:105B5000BDF93E0001F046F98146606C494600F00F
:105B6000D5FB002100F0C0FB03D24846616C00F079
:105B7000CDFB0490BDF9400001F034F98246A06CE1
:105B8000514600F0C3FB002100F0AEFB03D25046AB
:105B9000A16C00F0BBFB0390BDF9420001F022F9BB
:105BA0008346E06C594600F0B1FB002100F09CFBFD
:105BB00003D25846E16C00F0A9FB0290BDF9440005
:105BC00001F010F90546206D294600F09FFB0021E9
:105BD00000F08AFB03D22846216D00F097FB00906D
:105BE000BDF9460001F0FEF80646606D314600F052
:105BF0008DFB8046002100F077FB04D23046616DBA
:105C000000F084FB80460498394600F06FFC03994D
:105C100000F06CFC029900F069FC009900F066FC51
:105C2000414600F063FCDFF8641600F0B3FCDFF8D7
:105C3000601600F0EFFB0746B4F93A0001F0D2F825
:105C40000146384600F0A6FC616E00F0A3FC074652
:105C5000DFF84006394600F0DDFB394600F0DAFB9C
:105C60000746002100F040FB38BF80F000404FF0B5
:105C70007A5100F039FB07D23846002100F034FB9E
:105C800003D287F0004700E00F464FF07E503946C0
:105C900000F03CFB8046206C414600F0BBFB0090CE
:105CA0000198394600F0B6FB009900F01FFC206413
:105CB000606C414600F0AEFB00904846394600F06B
:105CC000A9FB009900F012FC8146C4F84490A06C36
:105CD000414600F09FFB00905046394600F09AFB89
:105CE000009900F003FC8246C4F848A0E06C4146ED
:105CF00000F090FB00905846394600F08BFB00996D
:105D000000F0F4FB8346C4F84CB0206D414600F02F
:105D100081FB00902846394600F07CFB009900F09A
:105D2000E5FB05462565606D414600F073FB804646
:105D30003046394600F06EFB414600F0D7FB064680
:105D40006665206C01F068F8ADF83C00484601F04B
:105D500063F8ADF83E00504601F05EF8ADF8400043
:105D6000584601F059F8ADF84200284601F054F8C1
:105D7000ADF84400304601F04FF8ADF846000E98FB
:105D80000FA93CC93CC0103805B0BDE8F00F5DF864
:105D900014FB2DE9F04F91B0B0F900A0B0F90290DA
:105DA000B0F90480B0F90660B0F90850B0F90A40C3
:105DB000C0680190ADF810A0ADF81290ADF8148055
:105DC000ADF81660ADF81850ADF81A40019807907C
:105DD00004A883B069460CC80CC10CC80CC10EBC29
:105DE00004A8FFF797FEDFF88C73B7F92A00B042DA
:105DF00001BFB7F92C00A842B7F92E00A04200F06D
:105E00000381A7F824A0A7F82690A7F828807E850C
:105E1000BD85FC8501983863387F10B9787F0028EC
:105E200050D14FF47A7B0BFB06F0B7F93C1090FB96
:105E3000F1F000F0D7FF0C900BFB05F0B7F93C1028
:105E400090FBF1F000F0CEFF0D900BFB04F0B7F9E2
:105E50003C1090FBF1F000F0C5FF0E9001980F9000
:105E60000BFB0AF0B7F93A1090FBF1F000F0BAFF23
:105E700008900BFB09F0B7F93A1090FBF1F000F035
:105E8000B1FF09900BFB08F0B7F93A1090FBF1F065
:105E900000F0A8FF0A9001980B9008A86A460AC86B
:105EA0000AC20AC80AC20FC8FFF712FBFFF729FA95
:105EB00040B1012078773888B8867888F886B88825
:105EC000388703E0787F002800F09E80B7F938001B
:105ED000241AB7F936002D1AB7F93400361AB7F973
:105EE0003C0000F07FFFDFF8B01300F093FA80462B
:105EF00005FB05F006FB060004FB040000F072FF42
:105F000004464046414600F085FA214600F0ECF98F
:105F100034BF01200020B87704A80FC8FFF748FC61
:105F2000BDF914A0504600F05DFF0446504600F055
:105F300059FF214600F06EFA0446BDF910004043B7
:105F400000F050FF214600F0D1FA8346BDF912500F
:105F5000284600F047FF8146DFF81863DFF810831A
:105F6000BAF1010F10DB584600F092FB494600F0F1
:105F700075FF414600F04EFA314600F0B7FADFF8FF
:105F80001C1300F0B3FA21E0012D58460EDB00F09F
:105F90007FFB494600F062FF414600F03BFA314684
:105FA00000F0A4FA0146DFF8F8020DE000F070FB03
:105FB000494600F053FF414600F02CFA314600F00C
:105FC00095FA0146DFF8DC0200F0A0F9F86505FB60
:105FD00005F000F007FF214600F088FA00F058FBBA
:105FE0000446BDF9100000F0FDFE0146204600F019
:105FF00035FF414600F00EFA314600F077FADFF83F
:106000009C1200F073FA386611B0BDE8F08FDFF82B
:106010006C32B3F834C0A0F800C0D88E0880188F56
:106020001080704710B5534CB4F93C10B4F93A00E5
:10603000FFF789FBDFF8700220676067DFF86C020A
:10604000C4F8800000202060A080C4F8060004F19D
:106050000A000FF27C2105235B1ECA5CC254FBD1EF
:1060600004F10F000FF27021052200F04BFB04F148
:1060700014000FF26C21052200F054FB0220E066B0
:106080008B484FF07E510160002242608260C26006
:10609000884881604160016010BD78480121017726
:1060A000704700000000704100B583483149D1F8C5
:1060B000801000F06FFA7C4900F016F928BF0846FE
:1060C00000BD000001C1454980B5FFF7EDFF4FF06D
:1060D0007E5100F009F901D2002002BD4FF080414D
