:020000040800F2
:10000000B0250020411E00087D1C00087F1C000850
:10001000811C0008831C0008851C000800000000EB
:10002000000000000000000000000000871C000825
:10003000891C0008000000008B1C00088D1C0008B3
:100040006D1E00086D1E00086D1E00086D1E000864
:100050006D1E00086D1E00086D1E00086D1E000854
:100060006D1E00086D1E00089D1C00086D1E000816
:100070006D1E00086D1E00086D1E00086D1E000834
:100080006D1E00086D1E00086D1E00086D1E000824
:100090008F1C00086D1E00086D1E00086D1E0008F4
:1000A0006D1E00086D1E00086D1E00086D1E000804
:1000B0006D1E00086D1E00086D1E00086D1E0008F4
:1000C0006D1E00086D1E00086D1E00086D1E0008E4
:1000D0006D1E00086D1E00086D1E00086D1E0008D4
:1000E0006D1E00086D1E0008931C000810B5DFF897
:1000F000784700B92BE000F095F800688047206849
:100100000A3010BD80B5DFF860070068C178DFF8FD
:100110005C2752788A420CD38278002A04BF8288F6
:10012000002A06D1817200F07DF8406880470020E7
:1001300002BD022002BD10B5DFF82C4700B906E071
:1001400000F070F88068804720680C3010BD20688F
:1001500001210182002010BD10B5DFF80C47206896
:10016000C1784079DFF808271268926990472168C2
:100170008A7A92B1002804BF087900280DD18878C6
:1001800058B900F04FF8C068804720684179C172C3
:100190002068C1780173002010BD022010BD10B589
:1001A000DFF8C416096810B90220088238E0DFF8C9
:1001B000C44600202080087800227F23184214D1F2
:1001C000487A81064CBF42F00201002121704006AE
:1001D000207854BF00F0FE0040F00100207000F0D5
:1001E00021F800698047204610BD00F07F03012BF5
:1001F000F9D000F07F00022812D1487900F00F01F9
:1002000042F0010200F083FA05D500F0300010281A
:10021000E5D12270E3E700F44050B0F5805FF7E7E6
:10022000002010BDDFF8500600687047F8B5DFF811
:1002300038060068017811F07F0102BF417A01F0B1
:10024000DF0141724ED0022901BF418800290179A6
:10025000002949D1417921F08004DFF820560A06AF
:1002600055F824204CBF02F0300202F44052DFF86F
:10027000FC351B789C4237D2002A1CBF807A0028AC
:1002800032D0080655F824000BD500F030001028B5
:1002900024D1204600F072FB3021204600F029FBDB
:1002A0001CE000F44050B0F5805F17D148F28006A2
:1002B0004BF68F77200007D1DFF8C40590F82C109B
:1002C000204600F083FB01E000F046FB55F82400D7
:1002D000384080F44050304345F82400FFF7A2FF37
:1002E000406980470020F2BD0220F2BD38B5DFF83A
:1002F00078050268537923F08000DFF880151C062A
:1003000051F820404CBF04F0300404F44054DFF8AE
:100310005C552D78A84206D2558825B9002C1CBF03
:10032000927A002A01D1022032BD48F280021B06D7
:1003300051F8203042BF48F6BF74234083F01003C9
:1003400004D44BF68F74234083F480531A4341F84E
:100350002020FFF767FF80698047002032BD80B50D
:10036000DFF804050068417A41F020014172FFF78F
:1003700059FFC0698047002002BDDFF8EC241268F5
:10038000538A20B98888C01A1082002070470868F4
:1003900018187047F8B5DFF8D054286800F1100439
:1003A0002688A168080016D0300014D0A0888642A4
:1003B00088BF06463046884707462088801B208035
:1003C000608830186080002000F0F2FA3246014662
:1003D000384600F053FBDFF8AC64208850B1DFF8FA
:1003E000A8044FF4405101800021002000F0E7FAFA
:1003F0003020308028682188A288914228BF0321BC
:1004000001D211B105210172F1BD06210172DFF89F
:100410007C04006880B2DFF87814002241F81020D4
:1004200030203080F1BD2DE9F843DFF83C442068EE
:1004300000F110063188DFF84C540A0004BF007A3E
:10044000042815D1DFF84C04017869B1DFF83C14B9
:10045000096889B2DFF83824002342F811303021CE
:100460002980042703702CE007271020288028E02B
:10047000B6F80480884505D30427414588BF414626
:10048000884600E002274046B16888478146002040
:1004900000F08DFA42460146484600F0DAFA41463D
:1004A000002000F08CFA3088A0EB080030807088C3
:1004B0004044708030202880DFF8CC034FF4405156
:1004C000018020680772BDE8F18338B5DFF89843F2
:1004D0002068457801787F22114238D1092D02D158
:1004E000FFF710FE47E0052D1BD1C17880294FD2C0
:1004F0008178002901BF81880029807A002847D1AE
:100500000620DFF88813096889B2DFF88423002306
:1005100042F81130DFF86C1330220A80216808722B
:1005200031BD032D08D1C178012904BF808800287E
:1005300023D1FFF714FF1EE0012D04BFC17801296C
:100540001BD18188C9B9407A80060DD415E001F02D
:100550007F00012804D10B2D0FD1FFF7FDFD0AE02C
:1005600002280AD1012D02D1FFF760FE03E0032D1E
:1005700003D1FFF7BBFE0028C2D02846BC4909685A
:1005800049698847032808BF0920C7D00028B7D089
:100590000820C3E738B5B44D28684178B44C2268C8
:1005A000062910D101787F23194229D180780128AA
:1005B00008BFD1696AD0022808BF116A66D0032833
:1005C0001ED1516A62E00B003FD14188002904BF6F
:1005D000C188022914D1017991B901787F23194288
:1005E00004BF8388002B2ED001F07F03012B12D192
:1005F000002140799269904710B92868807A10BB31
:1006000028684078216809698847032847D1286805
:100610000921017231BD01F07F010229F0D1407939
:1006200000F00F0100F0700200F071F84CBF00F014
:10063000300000F440508D4B1B789942E0D2002AE4
:10064000DED10028DCD0944920E0082905D10078CB
:100650007F210842D4D1914918E00A2902BF0178CC
:1006600001F07F010129CBD1817A0029C8D04188CE
:10067000002901BF01790029C1880129C0D10021C9
:100680004079926990470028BAD185490800B7D0CF
:100690002868002242828161002088470020296862
:1006A0000A8A4FF6FF739A4208BF092004D0022835
:1006B00018BF002A02D10820087231BD0878000650
:1006C0001ED5C88800902368009C94423CBF0098C7
:1006D00008820FD382420DD293F82C006D4C8242D7
:1006E00038BF002005D392FBF0F500FB152008B9B8
:1006F0000120207093F82C008882BDE8314092E6FA
:100700000320087260484FF44051018031BD5B4BBB
:10071000000653F82100704738B55C48006880B285
:10072000604931F81000400000F1804000F5C04001
:100730004D4C21680A7A092A14D010F8012B0A704E
:10074000216810F8012B4A70851C35F8040B00F065
:100750007BF921684880288800F076F92168888034
:10076000A888C8802068012101722068C08810B95B
:10077000FFF7ABFE01E0FFF70DFFBDE831403EE0C3
:1007800010B5394C2068017A022918BF042904D118
:10079000FFF749FE2068007A14E0062911D141785C
:1007A000052902BF01787F22114206D1C07800F0EE
:1007B00040F8FFF737FD006A80472D4800688068E1
:1007C0008047082017E010B5274C2068007A0228DF
:1007D00018BF04280ED0032818BF052804D1FFF73E
:1007E000D9FD2068007A06E0072803D12048006878
:1007F000C0688047082021680872BDE8104080B5B5
:100800001F4890F82C10002000F0E0F8164800680F
:10081000017A082906D11C494FF480520A801949EF
:1008200010220A80007A092801D1012002BD00208F
:1008300002BD70B50D4909780022104B48F68F763D
:100840000BE0D4B253F824503540254345F400451D
:1008500045F0800543F82450521C8A42F1D340F001
:1008600080001149086070BD580500202C0100204F
:100870005C0500209405002060050020005C00401D
:10088000000000209A05002098050020505C0040E0
:1008900004600040A70500209F010008ED0000084B
:1008A00037010008086000404C5C0040704750F879
:1008B000041B61B150F8042BD30744BFA9F1010315
:1008C0009A18002342F8043B091FFAD1EFE770475A
:1008D0004FF6F8710840DFF858110860704710B5FE
:1008E000DFF8502152F8203048F68F142340194386
:1008F00014E010B5DFF83C2152F8203048F6BF7400
:100900002340CC0648BF83F01003890648BF83F01C
:100910002003FFE743F4004141F0800142F820103A
:1009200010BDDFF8101151F820204BF68F731A40DC
:1009300082F4405242F4004209E0DFF8F81051F826
:10094000202048F68F631A4042F40042FFE742F04D
:10095000800241F820207047DFF8D81051F820209D
:1009600052040AD551F8202048F68F731A4042F4F9
:10097000404242F0800241F8202070472D4951F852
:10098000202052060AD551F8202048F68F731A40CD
:1009900042F4004242F0C00241F82020704731E0AA
:1009A000234A126892B202EBC000234A30E034E0DE
:1009B0001F49096889B201EBC0001F4933E01C4A96
:1009C000126892B202EBC0001C4A23E0184A126877
:1009D00092B202EBC0001A4A02EB40003F2909D351
:1009E0004A091F23194208BF521E1204910941F4FB
:1009F000004105E04A08C90748BF521C120491098A
:100A0000016070470A4A126892B202EBC0000D4AB8
:100A10004908490042F8101070470549096889B231
:100A200001EBC000074951F8100080B27047000088
:100A3000505C0040005C00400860004004600040E2
:100A40000C600040006000400106090C41EA1020E3
:100A5000704710B5490001F1804101F5C041521CB9
:100A6000521009E010F8013B10F8014B43EA04234F
:100A700021F8023B891C521EF4D110BD490001F13E
:100A8000804101F5C041521C521004E051F8043B72
:100A900020F8023B521EF9D1704700004109DFF8EF
:100AA000A423012300F01F0003FA00F042F8210004
:100AB00070470901002807D500F00F00DFF88823F0
:100AC000801800F8041C7047DFF8802381547047B9
:100AD00081B00020DFF87C130A6842F480320A609B
:100AE0000A6822F480220A604FF40062ADF8002008
:100AF0000A68920308D4BDF80020521EADF8002009
:100B000092B2002AF4D1012001B0704781B00020D8
:100B1000DFF840130A6842F080720A604FF4006206
:100B2000ADF800200B689B0108D4BDF800305B1EB7
:100B3000ADF800309BB2002BF4D102204B6843F09B
:100B400002034B60ADF8002058B94A68120708D478
:100B5000BDF80020521EADF8002092B2002AF4D158
:100B6000032001B0704738B50446DFF8E852286822
:100B700040F00100286028688007FCD56868DFF82D
:100B8000D812084068602868DFF8D0120840286052
:100B9000286820F480202860686820F4FE006860DF
:100BA0000020A860FFF794FF0021182C02D0302C01
:100BB00003D005E04FF4002104E0DFF8A41201E0C7
:100BC0004FF0FF30DFF89C22102313600028686884
:100BD00007BF41F44031084340F4201040F080004A
:100BE0006860FFF793FF00B13024DFF864020470FF
:100BF00018214170C17081700C210171007832BDE3
:100C0000DFF86402016841F4800101607047DFF899
:100C10005C0201210160DFF8581281601D214160F2
:100C2000704710B500F001F814E0DFF848420020EA
:100C300020606060E060A060DFF83C024FF000617F
:100C4000016041684FF6FF021140DFF83022114386
:100C50004160704701212A20FFF72BFF2A20FFF770
:100C60001DFF4FF480206061A06000F012F8142096
:100C7000FFF714FF00F00AF80A20FFF70FFF10201B
:100C80006061206840F01000206010BD08210A203B
:100C90000FE72060032114200BE7DFF8D8110A6862
:100CA00002430A600A69104308617047DFF8D011F7
:100CB00008607047DFF8CC01012101614FF48061C9
:100CC0004161DFF8C41141604FF044310160DFF849
:100CD000BC01DFF8BC114160DFF8B8110160DFF83A
:100CE000B801DFF8B811416000210160704701616F
:100CF000704741617047DFF8A801DFF8A811016073
:100D0000DFF8A411016070476848016841F0800174
:100D10000160704701B4002065490A68D2070CD50C
:100D20000A6812F0140218BF0120009A521E0092A5
:100D300002D00028F1D000E00120096811F0140170
:100D400018BF012001B0704770B50546584C2068A7
:100D500040F034002060574E3046FFF7DBFF78B993
:100D6000606840F002006060A560606840F040008C
:100D700060603046FFF7CEFF616821F002016160DC
:100D800070BD2DE9F04204460D46494E306840F0F2
:100D90003400306040F2751900F020F80746A7B91A
:100DA000706840F001007060258000F017F8074679
:100DB00027B9280C608000F011F807460FB100F049
:100DC0000DF87068400840007060002F01BF0127D7
:100DD0002068A84200273846BDE8F082484699E7D7
:100DE000354801684FF48072114301607047324802
:100DF000016821F4807101607047304A012806D0F3
:100E00000CD3032807D004D3042806D070471180E0
:100E10007047918070471181704791817047002120
:100E2000264A012807D00BD3032808D005D304286D
:100E300008BF918904E0118802E0918800E01189DF
:100E40000846704700E100E018ED00E000E400E033
:100E500020010020001002400C00FFFFFFFFF6FE03
:100E600080001800002002400410024014100240CC
:100E70000400A0180004014008ED00E00003FA059A
:100E8000140401400008014022F24744000C0140D4
:100E900064FF4284444444FF001001400000206489
:100EA0000420024023016745AB89EFCD10200240AA
:100EB0000C200240A9A0010000700040046C00401A
:100EC00010B5A84C04F13C0104F1380000F06FF9B2
:100ED00004F1340104F1300000F075F904F14C0123
:100EE00004F1480000F074F904F1440104F14000F9
:100EF00000F073F904F16C0104F1680000F05DF991
:100F000004F1740104F1700000F056F904F1540189
:100F100004F1500000F046F904F15C0104F15800BE
:100F200000F034F904F1640104F16000BDE8104000
:100F300000F031B98C4A00284FF48061104618BF88
:100F400000F0B2B900F0B2B980B58848006800215D
:100F5000817200F0CFF900F091FA8548002101601C
:100F600001BD10B58148016800228A720168CA7209
:100F70007C4C216BC979006841720020FFF7A8FC06
:100F80004FF400710020FFF7AAFC10210020FFF7AA
:100F9000B0FC78210020FFF702FD18210020FFF7A8
:100FA000FFFC0020FFF7C9FC94F82C100020FFF78D
:100FB0000DFD0020FFF7B5FC0020FFF73AFC6C4860
:100FC0000121016010BD6B48807A10B1684805218D
:100FD00001607047664804210160704780B500F0E9
:100FE00087FA1020BDE8024000F05AB9704780B57A
:100FF0005E4909680A78062804BF02F07F03012BC6
:101000000CD14879F0B98878222808BF0FF2ED0298
:1010100016D0212816D10FF2ED0211E002F07F0266
:10102000212A0FD1012808BF0FF25D0208D009283C
:1010300008BF0FF2210203D0032803D10FF21112CF
:10104000100001D1022002BD8A6100204882904731
:10105000002002BD70B5454D2868C1880182C67860
:10106000304600F072FA28688078022803D13046B2
:1010700000F074FA04E0032803D1304600F068FA67
:101080000446204670BD000010B5384C216888B970
:10109000C88808828878012803D1C8780020C04613
:1010A00004E0032804D1C87800F054FA21680882CB
:1010B000002010BD8A78012A04D1C878BDE810400C
:1010C00000F04ABA032A04D1C878BDE8104000F005
:1010D0003FBA10BD25490968097801F07F0121292F
:1010E00003D10B2808BF00F02AB80220704722491C
:1010F000FFF743B92149FFF740B900002049FFF746
:101100003CB900001F49FFF738B918490968C97888
:10111000144A0B46032B04D9EE3B09D102F17001AE
:1011200004E008BF022102EBC1015031FFF725B9ED
:101130000020704700290CBF0028022070470B4890
:101140000068C07810490860002070470000000067
:1011500028B90648006801210182002070470A482A
:1011600070470000000000200008014058050020E2
:10117000640500203C0500203800002030000020DD
:1011800040000020480000209C0500200FF2AC0227
:101190000260262003E00FF2CC0202601C200880CF
:1011A000002070470FF2900202600420F7E70FF270
:1011B000340202601220F2E700E000BF0022026069
:1011C0000020088070470FF2300202601B20E6E723
:1011D0000FF2360202600920E1E70FF238020260E6
:1011E0002220DCE712010002000000408304D091BD
:1011F000260001020301000009021B00010100E0BA
:101200003209040000000300000009211001000160
:10121000222200000600FF0901A101090215002693
:10122000FF007508953F91020903150026FF007520
:10123000089503B102C0000004030904260353000B
:1012400054004D006900630072006F0065006C007F
:1012500065006300740072006F006E006900630037
:10126000730000001C03530054002000530065006D
:101270006E0073006F00720020004800750062006D
:1012800080B500F015F83020FFF76DFCFFF7B8FCD3
:10129000FFF7BDFCFFF7C5FCBDE80140FFF70ABD45
:1012A000FFF7FBBCFFF702BDFFF721BDFFF721BD34
:1012B00080B500F0F1F800F0A4F9BDE8024000F0BC
:1012C000F6B8FFF718BDFFF75CBD000080B5FFF76B
:1012D000FFFB08B1FFF7FCFBFFF718FC08B1FFF7B5
:1012E00015FC5E485E49897A002914BF0521012159
:1012F000016001BD80B50120FFF71CFE59480121A6
:1013000001600021016041604FF4E051564A1180B4
:101310000160002002BD70B582B00023514804680E
:10132000524A4E4901EB830552F82360B6B26E6013
:101330005B1C082BF6D344F480639BB2036043F03C
:10134000010303604FF6FE742340036044686405A4
:10135000FCD54FF6FF344460002401EB84056D6832
:10136000ADB242F82450641C082CF6D343F00802B6
:101370000260026842F0040292B20260002200920F
:101380003B4A1368009313689B089B001360394C19
:10139000236843F0040323604368DB040CD4032078
:1013A000086000F0C0F830BF206820F00400206022
:1013B000BDE8734000F0A2B84EF6FF7141600168CD
:1013C0004FF6F7731940016000981060206820F014
:1013D0000400206073BD10B5224C20684FF6FB71ED
:1013E00008402060FFF772FF4FF43F40206010BDBF
:1013F00010B5214C072818BF20701A4821780529FC
:1014000029D8DFE801F00306090D141EFFF7E3FFFA
:1014100021E0FFF7E0FF08E00220607003201BE0FE
:101420006078401E60706078B8B9042014E00168EC
:1014300041F0100189B20160052020700A2060701F
:1014400010BD6178491E6170617831B901684FF64D
:10145000EF72114001600620207010BD640500206D
:101460003C050020405C0040A4050020005C0040DA
:101470000070004010ED00E0A005002004480021AD
:1014800041604FF43F41034A1180016000207047E2
:10149000405C0040A4050020284800210170012183
:1014A00041700021418070472448407870472349AB
:1014B0004870704721484088C0F3401070471F486B
:1014C0004088C0F3801070471C4840880006C00F59
:1014D00070471A484088000A02E018484088400ACD
:1014E00000F001007047154840880006400F704723
:1014F0001248418841F04001418070470F484188BF
:101500004FF48072FFE711434180704711404180E2
:1015100070470A4841884FF6BF72F7E7074841888D
:101520004FF67F72F2E7054841884FF6FF62EDE71C
:10153000024841884FF61F72E8E7000028010020AA
:1015400000F08AB80B48007870470A490870704765
:1015500000F084B800F084B800207047002808BF6D
:1015600000F080B800207047002808BF00F084B861
:1015700070470000A605002070B5044600250E192E
:10158000FFF7B9FB05E02046FFF7DEFB054604F553
:101590008064B44201D2002DF5D0FFF7B5FB284698
:1015A00070BDF8B50446FFF71BFC002100250E4670
:1015B0000F464FF6ED604CF6FE224BF6BE234BF67F
:1015C000EF6C012C06D0022C01BF61461D46164669
:1015D000074603E0014615461E4667460120FFF711
:1015E0000CFC29460220FFF708FC31460320FFF7D8
:1015F00004FC39460420FFF700FCBDE8F140FFF78A
:10160000F6BB80B50120FFF70AFC4FF6ED6188427A
:1016100001D1012002BD4BF6EF61884201D10220C9
:1016200002BD032002BD07484168074A5118B1F5C1
:10163000A84F9EBF0168A1F10051B1F5804F00D8BD
:1016400004E070470024000800DCFFF741680068F0
:1016500080F308880847000000F06CB800F070B80C
:1016600000F070B800F070B800F076B800F076B80E
:1016700000F07FB800F076B838B5254C254D00F065
:1016800068F801280CD0022820D0032825D004288F
:101690002CD0052830D0062818D00A2832D031BDE9
:1016A00000F06BF828B90320BDE8324000F05AB8CA
:1016B00031BD022000F056F800F0B0F800F046F816
:1016C0000728F5D000F064F80120EDE7042000F0D1
:1016D00049F8BDE8314000F086B8062000F042F835
:1016E00000F0DAF800F041F80820DDE70320FFF70A
:1016F00058FF00F015F8FEE707490848BDE83440F8
:10170000FFF7E1BD0220FFF74CFF00F009F8FEE70C
:101710000400FA050CED00E07856341200200008B1
:10172000BFF34F8F286800F4E06020432860BFF3C8
:101730004F8F70471D4801218170C1700171704742
:101740001B487047032070471A4870471748807835
:1017500070471648007A704717487047134890F84A
:10176000460070471149887070471049A1F803007E
:1017700070470E4890F82000704700200B498A7A85
:101780000B799A4201BF4A7AC9788A420120704790
:1017900006480179491C0171C9B2132904D10121FC
:1017A0000171C178491CC1707047000078000020A9
:1017B0007A00002080000020830000205348544914
:1017C000016000218180FFF747BF80B55148006864
:1017D0005149884201D0012002BDFFF712FF0128C4
:1017E00018BF002002BD80B54FF4E8314948FFF72B
:1017F000C3FEFFF766FDBDE80140DFE770B50446B4
:101800000025424E29593068FFF75DFD3068001D04
:1018100030602D1DB5F5806FF4DB70BD38B5002547
:10182000FFF722FF394CA18840F2EB329142294662
:101830000CD200F026F83B29FBDBFFF717FF85F001
:10184000FF01491CC9B288421AD014E000F019F80F
:101850001529FBDBFFF70CFF85F0FF01491CC9B21E
:10186000884208D10020A0800520FFF703FFA01DBB
:10187000BDE83240C2E70720BDE83240FFF7FABEBC
:1018800031BD0A5C5519EDB2A3881B199A71A28863
:10189000521CA280491C7047F0B51D49002000224F
:1018A000072304460546194E366807E080F40040D9
:1018B00080F0050087B2B7F5004FF7D24004000C66
:1018C000B14204D25DB911F8012B012509E008BF2E
:1018D000002D04D10022641C0F2CEBD3F0BD012D90
:1018E00009D15BB2002B06D442FA03F707F00107D7
:1018F000381880B25B1E012D02BF4FF0FF375BB27C
:10190000BB42E9D107230025E6E7000034010020AF
:101910000024000800200008785634122DE9F84F02
:101920000020ADF8000040F68F7848F60F7B48F2B3
:101930008006444F444CDFF81491DFF814A14BF6B5
:10194000BF7525E054F82010ADF80010BDF8001068
:1019500009040BD554F8201008EA010144F82010BE
:101960003C4901EB800050F8040C8047BDF80000B2
:1019700000060DD599F8000054F820100BEA01017B
:1019800044F82010344901EB800050F8040C8047E3
:10199000606CAAF80000000452D5BAF8000010F0FC
:1019A0000F0089F80000CDD120683880388800F019
:1019B00030007880388800F4405038802068284013
:1019C00080F4005080F0200030432060BAF800001E
:1019D000C006206805D40BEA00002060FEF7D0FEA8
:1019E00016E0ADF80000BDF80000000506D520683F
:1019F00008EA00002060FEF78FFE09E0BDF8000055
:101A00000004C5D5206808EA00002060FEF7DBFE70
:101A1000206828403988C90448BF80F4805039883C
:101A2000890448BF80F400507988C90648BF80F017
:101A300010007988890648BF80F02000304320607C
:101A4000BDE8F18F98050020005C0040A80500204B
:101A50008A05002004010020E80000202DE9F04163
:101A60008AB00024474D484E68687080474F7088A0
:101A700039880840000448BFFFF750FF4FF6FF3891
:101A8000708839880840400505D57460C5F8048021
:101A90003F4840688047388871880140890444BFC6
:101AA0004DF6FF71696071880840C00406D5746006
:101AB0004EF6FF7068600020FFF79AFC7088398846
:101AC000084000050BD53348007810B1FFF723FC20
:101AD00002E00220FFF78CFC4FF2FF70686038884C
:101AE00071880140890505D54FF6FF51696031784D
:101AF000491C317071880840C0053FD54FF6FF6022
:101B00006860A868000436D57068401C706028685A
:101B100080B20090706804282BD30098000728D466
:101B2000286880B2B0601C4801A950F8242092B205
:101B300041F82420641C082CF7D3B26842F001025B
:101B4000B260B26892B22A60B26852085200B260C3
:101B5000B26892B22A606A685205FCD5C5F8048062
:101B6000002451F8242092B240F82420641C082C50
:101B7000F7D3002070600720FFF73AFC0AB0BDE8F9
:101B8000F08100BF405C004088050020A4050020D3
:101B90000000002030010020005C00402DE9F041F1
:101BA00000F10801026801EB820243685808400016
:101BB00002EB800000240025264601270EE0F445B4
:101BC00018BFAC4208D014F8018B0CF8018B761EBC
:101BD00036B2002EF3D50127F44513D1824201D14C
:101BE000BDE8F08152F804CB5FEAC37E48BFCC4425
:101BF00052F804EBE644EFE70C686418091D51F84D
:101C0000045B2D19AC42F7D05FB114F9016B0027CA
:101C100005E00C686418091D51F8045B2D19AC42ED
:101C2000F7D0002ED4D514F8018BF445D4D00CF89D
:101C3000018B761C36B2002EF7D4CCE710B50849DC
:101C400079441C31074C7C441A34A14206D0081D4B
:101C50000A68511888470146A142F8D110BD00BF5B
:101C60006C010000940100004109404A012300F08A
:101C70001F0003FA00F042F821007047FEE7FEE77C
:101C8000FEE7FEE7FEE77047704770477047FFF7D3
:101C9000E5BE37484FF48021016070473448006842
:101CA000C00600D4704770B5FFF704FC002842D08E
:101CB000FFF73EFCFFF70DFC00283CD1FFF70DFCC1
:101CC000002838D12120FFF7CFFF2220FFF7CCFFDB
:101CD0000F20FFF7C9FF2020FFF7C6FF1E20FFF7E8
:101CE000C3FF0720FFF7C0FF0A20FFF7BDFF214C0D
:101CF0002046FFF7D7FAFFF784FC06461E4DFFF794
:101D0000D3FB86421CBF1D4828601D4841684FF424
:101D1000807211434160016841F004010160016873
:101D200041F002010160686840F0040068602046EC
:101D3000FFF7B8FA30BFFFF7C2FB40B1FFF7E9FB8E
:101D4000FFF700FCFFF710FC0020FFF7FEFBFFF79A
:101D5000BBFB08B1FFF7E2FBFFF7C5FB20B9102082
:101D6000BDE87040FFF79EBA70BD000080E100E062
:101D700014040140FFFF0F000CED00E00100FA0524
:101D80000070004080B5FFF720FD08B9FFF74BFC5D
:101D9000FFF776FAFFF7D4FBFFF792F800F006F8AA
:101DA00001480168FDE700BF640500200448C061E8
:101DB0000221017203490162034A42620868004736
:101DC0003C05002000000020C4000020E3EAFFFFE3
:101DD000780400003401002000000000C1FDFFFF76
:101DE000020000000200000094000000A4000000B7
:101DF00000000020310100000120C046002801D071
:101E0000FFF71CFF0020FFF7BDFF00F000F800F017
:101E100001B800000746384600F002F8FBE7000072
:101E200080B5C046C046024A11001820ABBEFBE791
:101E300026000200C046C046C046C046FFF7DCFF91
:101E400000480047351E0008FFF718BFFFF717BF0F
:101E5000FFF716BFFFF715BFFFF714BFFFF713BF5C
:101E6000FFF712BFFFF711BFFFF710BFFFF7FEBF6D
:101E7000FFF714BFFFF70BBFFFF70BBF27490F009A
:101E800008630F0008DD0F0008ED0F0008EF0F00DA
:101E900008D510000835110008EF100008F51000F3
:101EA000080B110008FC000040B500010500FD0111
:101EB000010041BB005AAD080008C70F0008AD087B
:101EC0000008AD080008AD080008AD080008AD081E
:101ED0000008AD080008D50F0008AD080008AD08DF
:101EE0000008AD080008AD080008AD080008AD08FE
:101EF0000008AD080008AD080008AD080008AD08EE
:101F00000008AD080008AD080008AD080008AD08DD
:101F100000FB080004FC00070100000201000001B2
:101F2000FFFFFFFFFFFFFFFFFFFFFFFFFFFFFFFFC1
:101F3000FFFFFFFFFFFFFFFFFFFFFFFFFFFFFFFFB1
:101F4000FFFFFFFFFFFFFFFFFFFFFFFFFFFFFFFFA1
:101F5000FFFFFFFFFFFFFFFFFFFFFFFFFFFFFFFF91
:101F6000FFFFFFFFFFFFFFFFFFFFFFFFFFFFFFFF81
:101F7000FFFFFFFFFFFFFFFFFFFFFFFFFFFFFFFF71
:101F8000FFFFFFFFFFFFFFFFFFFFFFFFFFFFFFFF61
:101F9000FFFFFFFFFFFFFFFFFFFFFFFFFFFFFFFF51
:101FA000FFFFFFFFFFFFFFFFFFFFFFFFFFFFFFFF41
:101FB000FFFFFFFFFFFFFFFFFFFFFFFFFFFFFFFF31
:101FC000FFFFFFFFFFFFFFFFFFFFFFFFFFFFFFFF21
:101FD000FFFFFFFFFFFFFFFFFFFFFFFFFFFFFFFF11
:101FE000FFFFFFFFFFFFFFFFFFFFFFFFFFFFFFFF01
:101FF00026000000FFFFFFFFFFFFFFFFFFFFFFFFC7
:1020000078563412FFFFFFFFFFFFFFFFFFFFFFFFC8
:10201000FFFFFFFFFFFFFFFFFFFFFFFFFFFFFFFFD0
:10202000FFFFFFFFFFFFFFFFFFFFFFFFFFFFFFFFC0
:10203000FFFFFFFFFFFFFFFFFFFFFFFFFFFFFFFFB0
:10204000FFFFFFFFFFFFFFFFFFFFFFFFFFFFFFFFA0
:10240000C032002029740008D96E0008DB6E000875
:10241000DD6E0008DF6E0008E16E000800000000BD
:10242000000000000000000000000000E36E000853
:10243000E56E000800000000E76E0008E96E000885
:102440005574000855740008557400085574000848
:102450005574000855740008557400085574000838
:1024600055740008557400082D6F00085574000855
:102470005574000855740008557400085574000818
:102480005574000855740008557400085574000808
:102490001F6F000855740008557400085574000833
:1024A00055740008557400085574000855740008E8
:1024B00055740008557400085574000855740008D8
:1024C000EB6E000855740008557400085574000838
:1024D00055740008557400085574000855740008B8
:1024E0005574000855740008236F000810B500F0FB
:1024F00035F8040005D000F073FC4FF4805100F073
:10250000CCFF02200120C046022000F01BFA01206F
:1025100000F0A3F9022000F0A0F9032000F09DF9DB
:10252000072000F09AF900F0E4FD08B101F043F94A
:1025300000F0BBFD01F033F900F0C2FD01F033F90A
:1025400000F0F0FD08B101F046F900F090F9012823
:1025500000D014B1BDE810401FE210BD10B500243A
:1025600000F083F800B9012400F00CF800B9012450
:1025700000F001F900B9012400F0B5F800B9012418
:10258000204610BD2DE9F04182B00124012000F069
:10259000A1FC050021D100F04EF901F0E5F904009D
:1025A00005D1012000F04CF9054601210AE000F0B8
:1025B00042F901F0FDFA040023D1012000F040F9B6
:1025C00005460E21012001F05FF89DF80010012062
:1025D00001F076F82946012011E0012000F08FFC7F
:1025E0000646204600F0A0FC07462946204601F09A
:1025F0004BF83146204601F063F83946204601F099
:102600007BF80125072000F065FC060011D100F0E1
:1026100012F90120C04605001FD10221072001F058
:1026200033F89DF80010072001F04AF840F2546199
:1026300010E0072000F063FC0746072000F074FC60
:1026400080463146072001F01FF83946072001F087
:1026500037F84146072001F04FF81CB1280002D09E
:10266000012000E00020BDE8F681F8B50124032038
:1026700000F030FC050020D100F0DDF801F07CF91D
:10268000040005D1032000F0DBF8054601210AE033
:1026900000F0D1F801F08DFA040022D1032000F0FF
:1026A000CFF805460E21032000F0EEFF9DF8001044
:1026B000032001F005F8294610E0032000F01FFC7C
:1026C0000646032000F030FC07462946032000F0B0
:1026D000DBFF3146032000F0F3FF3946032001F011
:1026E0000BF82046F2BDF8B50124022000F0F2FB01
:1026F00005002AD100F09FF801F040FB040005D14D
:10270000022000F09DF80546032114E000A801F026
:1027100060FB040005D1022000F092F80546042178
:1027200009E000A801F083FB040022D1022000F0A0
:1027300087F805460D21022000F0A6FF9DF8001045
:10274000022000F0BDFF294610E0022000F0D7FB78
:102750000646022000F0E8FB07462946022000F06A
:1027600093FF3146022000F0ABFF3946022000F013
:10277000C3FF2046F2BD70B582B00124052000F0F1
:10278000A9FB050049D100F056F801F029FC04002E
:1027900008D10A21052000F077FF9DF800100520E0
:1027A00000F08EFF012C06D100A801F034FC0400DB
:1027B00001D10B212BE0012C06D100A801F0DEFC99
:1027C000040001D10C2122E0012C06D100A801F067
:1027D0008EFD040001D1062119E0012C06D100A8CC
:1027E00001F05AFE040001D1072110E0012C06D1AE
:1027F00000A801F008FF040001D1082107E0012C26
:1028000017D100A801F01BFF040012D109210520F7
:1028100000F03AFF9DF8001008E0052000F06FFB83
:1028200006462946052000F02FFF3146052000F01E
:1028300047FF204676BD00208DF8000000A87047B5
:1028400010B50024022808BF042402F02EF8E0404E
:1028500000F00F00BDE8104067E01CB5044600A979
:1028600000F091FB00A9204600F058FF13BD10B501
:102870008CB00024052000F091FE002852D0009476
:1028800000F0B7FB18B900A800F0C0FB03E001247A
:102890004FF47A700090009800F0E0FF00F0C2FB67
:1028A00018B901A800F0CBFB39E001240C20ADF8E9
:1028B00004000020ADF8060001A818218180002145
:1028C000ADF80A102321ADF80C1044812F2181812D
:1028D0000421ADF812103B21ADF814100A21ADF817
:1028E00016104721ADF818101C21ADF81A1052210E
:1028F00001834B21ADF81E105E218183CE20ADF8FF
:1029000022006A20ADF8240040F23520ADF8260000
:102910007620ADF8280040F20B60ADF82A0001A83F
:1029200000F09FFF20460CB010BD1FB5044600A864
:102930000FF29C41102201F0C1FF00A830F81400F2
:1029400004B010BD10B5044601F0FCFF204602F0B3
:1029500078F8204602F0ADF820460120C046204617
:1029600002F02CF920460120C0462046BDE8104068
:1029700002F08EB910B500F0E0FB68B100F0F1FB99
:10298000044601F094FF002104F1100001F093FFD0
:10299000BDE8104001F08DBF10BD2DE9F0418EB0B3
:1029A0000025A84600F01FFA18B1012500F049FAE9
:1029B0008046DFF800743E4600F02DFA30B14FF447
:1029C0000061384600F069FD002502E000F052FA8F
:1029D000064601F06CFF00AF012000F0DFFD30B3D0
:1029E00000A9012000F02CFEBDF90000002804BF62
:1029F000B7F90200002802D1B7F90400B8B1BDF957
:102A0000001006F11C0001F056FFB7F9021006F1A4
:102A1000200001F050FFB7F9041006F1240001F086
:102A20004AFF4FF0113106F1180001F044FF022077
:102A300000F0B4FD30B300A9022000F001FEBDF9A2
:102A40000000002804BFB7F90200002802D1B7F93E
:102A50000400B8B1BDF9001006F12C0001F02BFF05
:102A6000B7F9021006F1300001F025FFB7F90410A4
:102A700006F1340001F01FFF4FF0123106F128007B
:102A800001F019FF032000F089FD30B300A90320F5
:102A900000F0D6FDBDF90000002804BFB7F9020020
:102AA000002802D1B7F90400B8B1BDF9001006F151
:102AB0003C0001F000FFB7F9021006F1400001F000
:102AC000FAFEB7F9041006F1440001F0F4FE4FF0ED
:102AD000133106F1380001F0EEFE052000F05EFD36
:102AE000002878D002A800F03FFE06F14C000299C1
:102AF00009B94FF47A7101F0DEFE4FF0143106F19E
:102B0000480001F0D8FE03A800F032FE03AFB88CF5
:102B1000002860D04FF0243106F1500001F0CBFEC8
:102B2000BDF80C00798840EA014106F1540001F03B
:102B3000C2FEB888F98840EA014106F1580001F068
:102B4000BAFE3889BDF8161040EA014106F15C0072
:102B500001F0B1FEBDF81800BDF81A1040EA0141BD
:102B600006F1600001F0A7FE388ABDF81E1040EAA9
:102B7000014106F1640001F09EFEBDF82000BDF8A1
:102B8000221040EA014106F1680001F094FE388B02
:102B9000BDF8261040EA014106F16C0001F08BFE01
:102BA000B88BBDF82A1040EA014106F1700001F02F
:102BB00082FE388CBDF82E1040EA014106F1740007
:102BC00001F079FEB88CBDF8321040EA014106F1FF
:102BD000780001F070FE012000F0E0FC044694B1A2
:102BE000012000F0F9FC0746012000F014FD00F080
:102BF000E9F806F1C40001F05EFE4FF4803106F101
:102C0000C00001F058FE022000F0C8FC044694B158
:102C1000022000F0E1FC0746022000F0FCFC00F07E
:102C2000D1F806F1CC0001F046FE4FF4003106F178
:102C3000C80001F040FE032000F0B0FC044694B14F
:102C4000032000F0C9FC0746032000F0E4FC00F07C
:102C5000B9F806F1D40001F02EFE4FF4403106F130
:102C6000D00001F028FE042000F098FC074677B160
:102C7000042000F0B1FC47EA002106F1DC0001F07D
:102C80001AFE4FF4802106F1D80001F014FE052051
:102C900000F084FC074677B1052000F09DFC47EA70
:102CA000002106F1E40001F006FE4FF4A02106F138
:102CB000E00001F000FE062000F070FC074677B14E
:102CC000062000F089FC47EA002106F1EC0001F043
:102CD000F2FD4FF4C02106F1E80001F0ECFD072001
:102CE00000F05CFC044684B1072000F075FC074648
:102CF000072000F090FC00F065F8301D01F0DBFDCE
:102D00004FF00111304601F0D6FD00F040FDB4282F
:102D10000CD000F03CFD014606F1F40001F0CBFDC3
:102D20004FF0183106F1F00001F0C5FD00F033FD61
:102D300005280CD000F02FFD014606F1FC0001F043
:102D4000BAFD4FF0193106F1F80001F0B4FD00F0C2
:102D50002EFD58B100F02BFD014606F2041001F0E3
:102D6000AAFD154906F2001001F0A5FD00F02CFDAA
:102D700058B100F029FD014606F20C1001F09BFD50
:102D80000E4906F2081001F096FD0D4906F2FC10FE
:102D900001F091FD01F08DFD45B101F088FD0021AC
:102DA00008F2FC1001F087FD01F083FD0EB0BDE8D4
:102DB000F081000000F00108011001100210021063
:102DC000EDFEEDFE390241EA004044EA00017047A1
:102DD000540641061006050614024502500201027F
:102DE000DFF8A803704710B50021DFF8A4030268DC
:102DF00000200FF2B033DFF89C4303E053F82120AA
:102E0000D2F8FC21A24202D0491C0429F6D304299D
:102E100018BF012010BD0021DFF8740302680120F3
:102E20000FF2803303E053F82120D2F8FC2112F195
:102E3000010F02D0491C0429F5D3042918BF002032
:102E4000704710B50021DFF84803026800200FF238
:102E50005433DFF8404303E053F82120D2F8FC213B
:102E6000A24202D0491C0429F6D3042918BF53F802
:102E7000210010BD0021DFF81803026800200FF2C6
:102E8000243303E053F82120D2F8FC2112F1010F82
:102E900002D0491C0429F5D3042918BF53F8210096
:102EA000704738B504460025FFF79DFF80B1601ECE
:102EB00007280DD2FFF7C5FF0FF2F82101EBC4017F
:102EC00051F8042C105851F8081C884208BF0125FD
:102ED000284632BD38B504460025FFF7E2FF60B151
:102EE000601E072809D2FFF7ACFF0C210FF2FC226D
:102EF00001FB042151F80C1C0D5C284632BD38B58D
:102F000004460025FFF7CDFF60B1601E072809D2F7
:102F1000FFF797FF0C210FF2D42201FB042151F897
:102F2000081C0D5C284632BD38B5044640F2546595
:102F3000FFF7B7FF60B1601E072809D2FFF781FFD6
:102F40000C210FF2A82201FB042151F8041C0D5A98
:102F5000284632BD38B504460025FFF744FF80B14E
:102F6000601E07280DD2FFF76CFF0FF2D42101EB92
:102F7000C40151F8042C105851F8081C884208BFAD
:102F80000125284632BD70B505460C466E1EFFF77A
:102F9000E1FF0028F6B217D0072E29D2FFF751FF24
:102FA0000C210FF2D42201FB052555F80C1C085A00
:102FB0002080FFF746FF0C3D6968085A6080FFF7E4
:102FC00040FFA968085A12E0072E0DD20FF2FC202C
:102FD00000EBC50030F9081C31B108384188218068
:102FE00081886180C08802E0002020806080A0800D
:102FF00070BD10B500F057F830B1FFF722FF806CBC
:10300000B0F1143F08BF0024204610BD38B5044677
:10301000FFF7EFFF050003D1FFF713FFC06C20603F
:10302000284632BD10B500F03EF830B1FFF709FF79
:10303000006DB0F1243F08BF0024204610BD38B514
:103040000446FFF7EFFF05000FD1FFF7FAFE5430FB
:10305000002100EB8102138824F8213004EB810366
:1030600052885A80491C0A29F3D3284632BD10B52C
:1030700000F019F838B1FFF7E4FED0F8F000B0F135
:10308000183F08BF0024204610BD10B500F00BF813
:1030900038B1FFF7D6FED0F8F800B0F1193F08BFFD
:1030A0000024204610BD01249DE610B5B424FFF78E
:1030B000DEFF18B9FFF7C5FE90F8F440204610BDBA
:1030C00010B50524FFF7E1FF18B9FFF7BAFE90F835
:1030D000FC40204610BD10B5FFF7E5FF38B1FFF703
:1030E000B0FED0F800012C49884208BF00242046D9
:1030F00010BD10B50024FFF7EEFF18B9FFF7A1FED1
:1031000090F80441204610BD10B5FFF7CCFF38B150
:10311000FFF797FED0F808012049884208BF002435
:10312000204610BD10B50024FFF7EEFF18B9FFF7D9
:1031300088FE90F80C41204610BD00211848026816
:1031400000200FF2C01302E053F821201269B2F1FF
:10315000443F02D0491C1029F6D3102918BF012082
:10316000704700210E48026800200FF2981302E019
:1031700053F821201269B2F1443F02D0491C1029B2
:10318000F6D3102918BF53F82100704700E001085A
:10319000FCF10108EDFEEDFE01100110021002101D
:1031A00010F8010800F0010800F2010800F401081D
:1031B00000F6010800000100C0000000000002004D
:1031C000C800000000000300D00000000000040060
:1031D000D800000000000500E0000000000006002C
:1031E000E80000000100010000000000C400000031
:1031F000C5000000C6000000CC000000CD000000AB
:10320000CE000000D4000000D5000000D600000071
:10321000DC000000DD00000000000000E400000011
:10322000E500000000000000EC000000ED000000E0
:10323000000000000400000005000000060000007F
:1032400011111111180000001212121228000000B2
:1032500013131313380000000000000000000000EA
:10326000000000000000000000000000000000005E
:1032700017171717080000001C00000020000000AE
:10328000240000002C00000030000000340000008A
:103290003C0000004000000044000000000000006E
:1032A000000000000000000000000000000000001E
:1032B000000000000000000000000000000000000E
:1032C0000C000000100000001400000000000000CE
:1032D00000000000000000000000000000000000EE
:1032E00000000000000000000000000000000000DE
:1032F00000000000000000000000000000000000CE
:103300000000000000F8010880F8010800F9010839
:1033100080F9010800FA010880FA010800FB0108A1
:1033200080FB010800FC010880FC010800FD010889
:1033300080FD010800FE010880FE010800FF010871
:1033400080FF0108FF2001F052BEF8B50C4611467F
:103350001D46012600F0FE07E1B1204601F081FE86
:1033600001F04DFF060003D1384601F05EFF06462E
:1033700016B901F08BFF064616B901F0C9FF0646E3
:1033800026B94DB101F0D5FF064601E001F0D1FFAD
:10339000012E01D100F038F83046F2BD70B5044678
:1033A000084611461D46627802F0FE02627089B13D
:1033B00001F057FE01F023FF060003D1204601F083
:1033C00047FF064616B901F061FF064676B901F0DF
:1033D0009FFF0AE001F013FF060003D1204601F031
:1033E00037FF064616B901F051FF064626B94DB122
:1033F00001F09FFF064601E001F09BFF012E01D185
:1034000000F002F8304670BD4FF4C871FF2001F0A3
:10341000EEBDF8B50C46154640F00106022D17D357
:103420002946204601F02CFE01F0E9FE070003D1F9
:10343000304601F0FAFE074617B901F045FF07468E
:1034400017B101F076FF22E001F073FF07461EE09E
:10345000022100A801F014FE01F0D1FE070003D103
:10346000304601F0E2FE074617B901F02DFF07468E
:1034700017B101F05EFF02E001F05BFF074600209C
:1034800003E000A9415C0155401CA842F9D3012F7B
:1034900001D1FFF7B9FF3846F2BD70B504460025EB
:1034A0000E1901F005FE05E0204601F02AFE054652
:1034B00004F58064B44201D2002DF5D001F001FE84
:1034C000284670BDF8B5044601F067FE00210025CE
:1034D0000E460F464FF6ED604CF6FE224BF6BE232D
:1034E0004BF6EF6C012C06D0022C01BF61461D4645
:1034F0001646074603E0014615461E46674601206C
:1035000001F058FE2946022001F054FE3146032006
:1035100001F050FE3946042001F04CFEBDE8F140B8
:1035200001F042BE80B5012001F056FE4FF6ED617C
:10353000884201D1012002BD4BF6EF61884201D1E2
:10354000022002BD032002BD07484168074A511806
:10355000B1F5B43F9EBF0168A1F10051B1F5804FB4
:1035600000D805E070470000007800080088FFF7E9
:103570004168006880F30888084750F8041B61B16F
:1035800050F8042BD30744BFA9F101039A18002374
:1035900042F8043B091FFAD1EFE770470021DFF83A
:1035A0006823401E062815D8DFE800F00406080A44
:1035B0000D10130011780DE0117D0BE0917F09E0F3
:1035C00092F8281006E092F82A1003E092F85810BA
:1035D00000E0917A084670470021DFF82C23531C45
:1035E000401E062815D8DFE800F00406080A0D1072
:1035F000130051780DE0197D0BE0997F09E092F8F6
:10360000291006E092F82B1003E092F8591000E020
:10361000997A0846704740F25461DFF8EC2201289D
:1036200007D0022807D0032807D0072808BF9189B0
:1036300004E0518802E0D18A00E0118C084670470E
:10364000B14A012806D002280AD003280ED0072844
:1036500012D0704790880880D0884880108910E088
:10366000108B0880508B4880908B0AE0508C08802B
:10367000908C4880D08C04E0D0890880108A4880E3
:10368000508A8880704700009F4A401E062815D83F
:10369000DFE800F00406080A0D10130011707047EF
:1036A000117570479177704782F82810704782F83B
:1036B0002A10704782F858107047917270470000C6
:1036C000914A531C401E062815D8DFE800F0040676
:1036D000080A0D10130051707047197570479977DB
:1036E000704782F82910704782F82B10704782F8D3
:1036F0005910704799727047834A012806D00228F2
:1037000006D0032806D0072806D07047518070479E
:10371000D182704711847047918170477A4A01289D
:1037200006D002280BD0032810D0072815D07047E8
:10373000088890804888D0808888108170470888E1
:103740001083488850838888908370470888508405
:10375000488890848888D08470470888D0814888B9
:1037600010828888508270476749C96A0160704733
:103770000021654A02EB8102138E20F8213000EB14
:103780008103528E5A80491C0A29F2D370475E4841
:10379000B0F85C0070475C48B0F85E0070475A496A
:1037A000A1F85C0070475849A1F85E007047564880
:1037B00090F862000CE0544890F8621041F001016A
:1037C000FFE780F8621070474F4890F862004008A9
:1037D00000F0010070474C4890F8621041F002017F
:1037E000EFE7000006210022474B93F85A30401EB5
:1037F000052812D8DFE800F00306080A0C0E03F0D3
:1038000001020AE0580806E0980804E0D80802E03F
:10381000180900E0580900F0010202B1022108462F
:10382000704700000021384A92F85B20401E0528AE
:1038300012D8DFE800F00306080A0C0E02F00101BE
:103840000AE0500806E0900804E0D00802E0100901
:1038500000E0500900F00101084670472A49C8629B
:1038600070470021284A02EB810230F8213013868C
:1038700000EB81035B885386491C0A29F2D3704709
:103880000022062918BF01221F4991F85A30401E14
:10389000052817D8DFE800F00306090C0F1262F3C1
:1038A00000030DE062F341030AE062F3820307E0E4
:1038B00062F3C30304E062F3041301E062F345130F
:1038C00081F85A30704700000F4A92F85B30401E72
:1038D000052817D8DFE800F00306090C0F1261F382
:1038E00000030DE061F341030AE061F3820307E0A6
:1038F00061F3C30304E061F3041301E061F34513D2
:1039000082F85B3070470000DC00002080B500F0DA
:1039100020F800F002F920B9012200A93C20FFF7AD
:1039200078FD002804BF9DF800003C280FD100F06E
:1039300010F800F082F820B9012200A93220FFF728
:1039400068FD002804BF9DF80010332900D0012035
:1039500002BD0F208DF8010000208DF8000001232A
:1039600001220DF10101704710B50446FFF7CEFFAB
:1039700008B93221217010BD10B50446FFF7C6FF0B
:1039800008B93C21217010BDE0B501A80FF2AC11BF
:103990000CC90CC0062201A9202000F03BF838B960
:1039A00002208DF80000012200A9322000F032F838
:1039B00038B92A208DF80000012200A9302000F03B
:1039C00029F80EBD80B577218DF80010062804BFB8
:1039D00000208DF80000012200A9202000F01AF834
:1039E00002BD1CB50446062200A9282000F028F8D4
:1039F00058B9BDF9001009112180BDF90210091153
:103A00006180BDF90410091102E00021218061806C
:103A1000A18016BD1CB503460120082A0BD28DF8E3
:103A20000030022A24BF43F080008DF8000000F02F
:103A300066F800F001F816BD00A93220FFF785BC3A
:103A400031B50C461546022D24BF40F080008DF89C
:103A5000000001230122FFF7EFFF20B92A4621468B
:103A60003220FFF7D6FC32BD80B500A80FF2D4019A
:103A70000A680260032200A900200BE080B5002143
:103A80008DF80010062804BF02208DF800000122E6
:103A900000A9022000F025F802BD10B584B004464C
:103AA00000208DF80800012202A9022000F038F859
:103AB00020B9062200A9032000F032F858B9BDF958
:103AC000001049BA2180BDF9021049BAA180BDF9A0
:103AD000041049BA02E000212180A180618004B075
:103AE00010BD03460120042A00D3704710B582B0F0
:103AF0008DF8003000F003F800F00EF816BD10004D
:103B000000AC04E0431813F8013C0355401EF9D102
:103B10000123521C92B2704700A93C20FFF715BC4C
:103B200031B50C46154601230122FFF7F5FF20B9F8
:103B30002A4621463C20FFF76CFC32BD00814088BC
:103B40000000000018E0020010B582B004460F200B
:103B50008DF8010000208DF80000012301220DF1F5
:103B600001013A20FFF7F1FB20B9012200A93A2018
:103B7000FFF74FFC28B99DF80010492916D13A21CA
:103B800012E0012301220DF101013C20FFF7DDFBD2
:103B900020B9012200A93C20FFF73BFC38B99DF871
:103BA0000010492902D13C21217016BD012016BD0B
:103BB000CAE7C9E7E0B501A80FF2B4110CC90CC0FF
:103BC000052201A91F2000F03CF828B9082000F0C8
:103BD0001DF8122000F035F828B9022000F016F880
:103BE000322000F02EF828B92A2000F00FF83020FB
:103BF00000F027F80EBD80B506280CBF08208F20E6
:103C000000F004F8202000F01CF802BD8DF8000040
:103C1000012200A970471CB50446062200A92820ED
:103C200000F023F840B9BDF800102180BDF8021063
:103C30006180BDF8041002E0002121806180A18034
:103C400016BD7CB506460C4615460120082D0BD244
:103C5000FFF7C2FC8DF80060022D24BF46F0800102
:103C60008DF8001000F057F876BD71B581B00C46A4
:103C70001546012063E080B500A80FF2FC010A6838
:103C80000260032200A924200BE080B500218DF8FA
:103C90000010062804BF02208DF80000012200A9B0
:103CA000262000F022F802BD10B584B004460020A2
:103CB0008DF80800012202A9262000F03BF820B967
:103CC000062200A9082000F035F840B9BDF8001020
:103CD0002180BDF802106180BDF8041002E00021CF
:103CE00021806180A18004B010BD70B582B006460D
:103CF0000C4615460120042D0CD20320FFF76CFC66
:103D00008DF80060022D24BF46F080018DF8001070
:103D100000F001F876BD290000AB04E00A1912F8A2
:103D2000012CCA54491EF9D101236A1C92B200A980
:103D3000FFF70BBB71B581B00C4615460320FFF7AA
:103D40004BFC0646022D05D39DF8040040F0800090
:103D50008DF804000123012201A93046FFF7F5FA8E
:103D600020B92A4621463046FFF753FB76BD0000B6
:103D700002080020000000007440020010B582B06C
:103D800000F086F8D020FFF7E0FA20B9012200A960
:103D9000D020FFF73EFB28B99DF80010D32916D19B
:103DA000D02112E0012301220DF10101D220FFF701
:103DB000CCFA20B9012200A9D220FFF72AFB38B99A
:103DC0009DF80010D32902D1D221217016BD012007
:103DD00016BD1CB504460F208DF8010000208DF89B
:103DE000000045F6C05001900198401E0190FBD1A3
:103DF000012301220DF10101D420FFF7A6FA08B931
:103E000000F03AF820B99DF80010D4290DD10AE04D
:103E100000F037F808B900F02AF838B99DF800101A
:103E2000D42902D1D621217016BD012016BD10B5AE
:103E300082B000F02DF8D420FFF787FA08B900F01F
:103E40001BF828B99DF80010D7290ED1D4210AE01B
:103E500000F017F808B900F00AF838B99DF800101A
:103E6000D72902D1D621217016BD012016BD01220D
:103E700000A9D620FFF7CDBA012200A9D420FFF770
:103E8000C8BA012301220DF10101D620FFF75DBA66
:103E900004460F208DF8010000208DF8000001235A
:103EA00001220DF10101704700B583B013480021D4
:103EB000018000A80FF220110CC90CC00220FFF7EE
:103EC0006DFB032804BF60208DF80400052200A9C3
:103ED000202000F042F80EBD80B5084900220A807B
:103EE000CF218DF80010062808BF8DF80020012290
:103EF00000A9202000F031F802BD0000B802002027
:103F00003EB50446062201A9282000F048F8050025
:103F100017D1BDF804002080BDF806006080BDF810
:103F20000800A0800220FFF739FB03280DD10020F4
:103F300000F00DF8050008D1202000F008F8054633
:103F400003E0002020806080A08028463EBD8DF8E0
:103F50000000012200A92E20FFE77CB506460C4692
:103F600015460120082D19D20220FFF735FB8DF8E8
:103F70000060022D24BF46F080018DF8001029005A
:103F800000AB04E00A1912F8012CCA54491EF9D1F9
:103F900001236A1C92B200A9FFF7D7F976BD71B56B
:103FA00081B00C4615460220FFF716FB0646022D8F
:103FB00005D39DF8040040F080008DF80400012333
:103FC000012201A93046FFF7C0F920B92A4621464F
:103FD0003046FFF71EFA76BD000000B0000000007A
:103FE0001CB5044600F039F8A0B900F02FF82020E5
:103FF000FFF7ABF920B9022200A92020FFF709FA48
:10400000002804BF9DF80010182902D1202121703A
:1040100016BD012016BD1CB5044600F01EF8A0B95F
:1040200000F014F89020FFF790F920B9022200A9BF
:104030009020FFF7EEF9002804BF9DF80010182922
:1040400002D19021217016BD012016BD07208DF8E8
:1040500004000023012201A9704700B583B00520A8
:10406000009000208DF804000098401E009008D0B9
:10407000012201A91820FFF7CCF90028F4D0002074
:104080000EBD01200EBD80B5FFF7E7FF10B9062079
:1040900000F016F898B90DF102000FF2D8010A8865
:1040A000028000A80021018002220DF102010020FF
:1040B00000F031F8022200A9032000F02CF802BD24
:1040C00010B582B00446FFF7C8FF88B900A80FF208
:1040D000A8010A880280062C05D107208DF800006F
:1040E00010208DF80100022200A9002000F013F832
:1040F00016BD10B582B00446FFF7AFFF50B90222DB
:1041000000A9042000F01CF800280CBFBDF8001026
:104110000021218016BD38B504460D460120022A33
:104120000DD10520FFF758FA8DF8004000A92A7834
:104130004A706A788A7001230322FFF706F932BDBC
:1041400070B582B004460D460120022A10D1052028
:10415000FFF742FA06468DF800400023012200A92D
:10416000FFF7F3F820B9022229463046FFF751F94C
:1041700076BD0000C7000000440800001CB50446DE
:10418000072000F038F820B9022201A92020FFF70B
:1041900040F968B99DF80400812824D120202070BE
:1041A000062000F028F8F8B9022201A9202017E023
:1041B00000F01BF820B9022201A99020FFF729F98D
:1041C00090B99DF8040081280DD190202070062020
:1041D0008DF8000000F009F830B9022201A9902002
:1041E000FFF717F916BD012016BD0123012200A912
:1041F0009020FFF7AAB88DF800000123012200A942
:104200002020FFF7A2B800B583B00120052100915E
:104210000099491E009106D0022201A9062000F053
:104220004CF80128F4D00EBD80B5FFF7ECFF18B9AB
:104230000620BDE8024000E002BD10B582B0044691
:10424000FFF7E1FF88B900A80FF2A0010A880280F9
:10425000062C05D101208DF8000008208DF8010002
:10426000022200A9002000F013F816BD10B582B09C
:104270000446FFF7C8FF50B9022200A9042000F04D
:104280001CF800280CBFBDF800100021218016BDCD
:1042900038B504460D460120022A0DD10520FFF74E
:1042A0009BF98DF8004000A92A784A706A788A70D4
:1042B00001230322FFF749F832BD70B582B00446EE
:1042C0000D460120022A10D10520FFF785F9064688
:1042D0008DF800400023012200A9FFF736F820B92D
:1042E000022229463046FFF794F876BD000810B543
:1042F00082B0044606208DF8010000208DF80000F1
:10430000002301220DF1010100F083F820B9012200
:1043100000A98820FFF77DF8002804BF9DF8001051
:10432000FF2902D18821217016BD012016BD00B5DC
:1043300083B000F035F808B900F032F808B900F0A1
:104340002FF820B900F027F8082000F04BF818B932
:1043500000F021F800F046F84FF4C04101910199B6
:10436000491E0191FBD128B9022000F014F8012068
:1043700000F038F810B9062000F016F810B9022045
:1043800000F012F810B9022000F00EF810B9022067
:1043900000F00AF80EBD8DF80000012200A9704758
:1043A000022200A9062037E080B5A0218DF8001078
:1043B000062804BF00208DF80000012200A900207B
:1043C00000F010F802BD10B582B00446022200A928
:1043D000022000F021F800280CBFBDF800100021D9
:1043E000218016BD1CB503460120052A0FD28DF889
:1043F0000030100000AC04E0431813F8013C0355F2
:10440000401EF9D10123521C92B200F001F816BDF2
:1044100000A98820FEF799BF31B50C461546012347
:104420000122FFF7F5FF20B92A4621468820FEF732
:10443000F0FF32BD10B582B0044606208DF80100B1
:1044400000208DF80000002300F0CBF88820FEF754
:104450007CFF20B9012200A98820FEF7DAFF28B9E5
:104460009DF80010F02915D1882111E0002300F0FB
:10447000B8F88A20FEF769FF20B9012200A98A2036
:10448000FEF7C7FF38B99DF80010F02902D18A2144
:10449000217016BD012016BDCCE700B583B0002009
:1044A00000F09DF8012000F01BF810B9292000F061
:1044B00011F820B900F08EF80E2000F011F808B9BC
:1044C00000F008F84FF4C04101910199491E019193
:1044D000FBD10EBD8DF80000012200A90F20FFE7DF
:1044E00038B504460D460120012A0CD10520FFF7FE
:1044F00073F88DF8004029788DF80110012302220D
:1045000000A9FEF722FF32BD70B582B004460D4609
:104510000120012A10D10520FFF75EF806468DF82C
:1045200000400023012200A9FEF70FFF20B901225D
:1045300029463046FEF76DFF76BD10B582B00520E6
:10454000FFF770F904460620FFF76CF9204302D10B
:10455000FFF7A3FF50B900F00AF838B99DF8000042
:1045600000F0FB0040F0020000F02EF816BD002025
:104570008DF80000012200A90120C5E710B582B026
:104580000446FFF7F7FF48B9062C9DF800000CBF62
:1045900000F0FB0040F0040000F016F816BD10B566
:1045A00082B00446012200A90920FFF7ADFF20B91F
:1045B00000F017F80A20FFF7A7FF00280CBFBDF88E
:1045C00000100021218016BD8DF80000012200A9F5
:1045D000012085E78DF80000012200A970478DF8C1
:1045E000010001220DF101017047000080B500F0CB
:1045F0002EF808B900F02BF820B900F019F82220A5
:10460000FEF7A3FE02BD10B50446FFF7EFFF08B9A1
:104610002221217010BD80B500F019F808B900F012
:1046200016F820B900F004F89220FEF78EFE02BDC5
:1046300020208DF800000123012200A9704710B549
:104640000446FFF7E8FF08B99221217010BD00B5BC
:1046500083B00520009000208DF804000098401ED3
:10466000009008D0012201A91820FEF7D2FE0028F0
:10467000F4D000200EBD01200EBD10B582B0052083
:10468000FEF78CFF00F0C0F820218DF80110082CF7
:1046900002D0092C04D008E000F0B2F8222002E099
:1046A00000F0AEF8922000F0B5F808B9FFF7CFFFA0
:1046B00078B900218DF80010082C02D0092C03D005
:1046C00007E000F0A3F802E0012200A9F02000F0CA
:1046D000A1F808B9FFF7BBFF78B900218DF80010E9
:1046E000082C02D0092C03D007E000F08FF802E07C
:1046F000012200A9F02000F08DF808B9FFF7A7FF0C
:1047000078B900218DF80010082C02D0092C03D0B4
:1047100016BD00F07BF802E0012200A9F02000F0B5
:1047200079F816BD10B50520FFF77CF80446062081
:10473000FFF778F8204302D1FFF79FFF08B9FFF792
:1047400086FF08B9FFF783FF18B90620BDE81040BF
:1047500000E010BD38B500F057F8050002D1FFF7B2
:1047600076FF0546CDB90520FEF718FF0E218DF81E
:104770000010062C04BF0F218DF80010082802D06D
:10478000092804D009E0012200A9202002E001222A
:1047900000A9902000F03EF80546284632BD38B505
:1047A00000F032F8050002D1FFF751FF05462DBB9E
:1047B0000520FEF7F3FE082802D009280BD017E0E9
:1047C000012200A9232000F03DF8050010D100F0DF
:1047D00017F8212009E0012200A9932000F032F807
:1047E000050005D100F00CF8912000F02BF80546EB
:1047F000002D0CBFBDF8000000202080284632BDEF
:1048000001220DF101017047044620E7012200A9B1
:10481000B020704710B582B004460120012A0ED1A5
:10482000F02C04D201232046FEF78FFD16BD00A810
:10483000002202808DF800400123FEF7AFFD16BD77
:104840000000000003460120012A05D1F02B3CBFE7
:104850001846FEF7DEBD00BF7047000080B500F0CF
:104860001BF8302000F07BFA00F0C6FA00F0CBFA1B
:1048700000F0D6FA00F023FB4FF4C871FF20BDE82A
:10488000044000F0B4BB00F00DBB00F014BB00F01E
:1048900033BB00F033BB704780B500F0B5FDFEF7C9
:1048A00041FEBDE8024000F0BABD00F029BB00F0B7
:1048B000FFBB00F006BC00F041BC0000103A07D37B
:1048C00030B4B1E83810103AA0E83810F9D230BC52
:1048D000530724BFB1E80810A0E8081044BF51F8FE
:1048E000043B40F8043BD20724BF31F8022B20F8E8
:1048F000022B44BF0B7803707047083A07D3B1E826
:104900000810083A40F8043B40F804CBF7D25307AC
:10491000E4E710B5012400F063F8012802D00E2866
:1049200003D005E0FFF730F801E0FFF743F9044654
:104930000720FEF733FE022802D10120C0460446BC
:10494000204610BD38B504460125062C0AD00120AA
:10495000FEF768FF30B9FFF7DCFF18B90121084600
:10496000FEF7B2FF0120FEF73DFF844208BF00259D
:104970000ED000F035F8012802D00E2804D007E050
:104980002046FFF71FF802E02046FFF734F90546FE
:104990000720FEF703FE022803D120460120C0466F
:1049A00005461DB921460120FEF76AFF284632BDA3
:1049B00038B50446012500F013F8012802D00E286E
:1049C00004D007E02046FFF70CF802E02046FFF78E
:1049D00022F90546284632BD04460D4616460127F3
:1049E0000120FEF7DBBDF8B5FFF7F6FF012802D086
:1049F0000E2805D009E000F01EF8FFF721F803E0CB
:104A000000F019F8FFF731F907463846F2BDF8B55E
:104A1000FFF7E2FF012802D00E2805D009E000F0E0
:104A20000AF8FEF7F7FF03E000F005F8FFF709F9D1
:104A300007463846F2BD3246294620467047FFF702
:104A400033BA38B50446062C0AD00220FEF7EAFE37
:104A500030B9FFF7F4FF18B901210220FEF734FF47
:104A60000220FEF7BFFE844208BF002504D0204686
:104A7000FFF732FA050003D121460220FEF700FFBE
:104A8000284632BDFFF73CBAFFF789BAFFF765BA8F
:104A900010B5012400F052F8012802D00E2803D0EE
:104AA00005E0FEF7E1FF01E0FFF7E5F804462046E8
:104AB00010BD38B504460125062C0AD00320FEF7A8
:104AC000B1FE30B9FFF7E4FF18B901210320FEF76A
:104AD000FBFE0320FEF786FE844208BF00250FD0B0
:104AE00000F02CF8012802D00E2804D007E0204660
:104AF000FEF7C4FF02E02046FFF7C7F805461DB9E0
:104B000021460320FEF7BCFE284632BD38B50446D8
:104B1000012500F013F8012802D00E2804D007E088
:104B20002046FEF7BAFF02E02046FFF7BDF8054633
:104B3000284632BD04460D46164601270320FEF7DF
:104B40002DBDF8B5FFF7F6FF012802D00E2805D0DD
:104B500009E000F01EF8FEF7E3FF03E000F019F8AB
:104B6000FFF7E8F807463846F2BDF8B5FFF7E2FF71
:104B7000012802D00E2805D009E000F00AF8FEF75F
:104B8000B0FF03E000F005F8FFF7AFF8074638463E
:104B9000F2BD3246294620467047000010B5012478
:104BA00000F049F8801FC0B2072805DA0FF28C0127
:104BB00051F8200080470446204610BD38B5044611
:104BC0000125062C0AD00520FEF72CFE30B9FFF790
:104BD000E5FF18B901210520FEF776FE0520FEF756
:104BE00001FE844208BF00250DD000F024F8811F8B
:104BF000C9B207290BDA20460FF25C0252F82110E5
:104C00008847050003D121460520FEF739FE2846D6
:104C100032BD38B50446012500F00DF8811FC9B238
:104C2000072906DA20460FF24C0252F82110884775
:104C30000546284632BD0520FEF7B0BC2F430008CC
:104C40003B45000825470008254700088740000825
:104C50008740000829420008A94300087D45000854
:104C60005547000855470008C1400008C1400008EA
:104C70003B420008C74300089F4500089F470008C3
:104C80009F470008F3400008F34000086D42000809
:104C9000012070474109DFF8C826012300F01F00FA
:104CA00003FA00F042F8210070470901002807D5F7
:104CB00000F00F00DFF8AC26801800F8041C7047E5
:104CC000DFF8A4268154704781B00020DFF8A016D9
:104CD0000A6842F480320A600A6822F480220A607C
:104CE0004FF40062ADF800200A68920308D4BDF8C2
:104CF0000020521EADF8002092B2002AF4D101200B
:104D000001B0704781B00020DFF864160A6842F0F5
:104D100080720A604FF40062ADF800200B689B01BE
:104D200008D4BDF800305B1EADF800309BB2002BFC
:104D3000F4D102204B6843F002034B60ADF8002031
:104D400058B94A68120708D4BDF80020521EADF8C1
:104D5000002092B2002AF4D1032001B0704738B588
:104D60000446DFF80C56286840F0010028602868E7
:104D70008007FCD56868DFF8FC1508406860286883
:104D8000DFF8F41508402860286820F480202860A7
:104D9000686820F4FE0068600020A860FFF794FFB8
:104DA0000021182C02D0302C03D005E04FF4002154
:104DB00004E0DFF8C81501E04FF0FF30DFF8C02550
:104DC000102313600028686807BF41F4403108438E
:104DD00040F4201040F080006860FFF793FF00B1BE
:104DE0003024DFF88805047018214170C17081708B
:104DF0000C210171007832BDDFF88805016841F4AB
:104E0000800101607047DFF8800501210160DFF853
:104E10007C1581601D21416070470421202044E7FA
:104E200010B500F023F8FFF7F9FF00F035F8012185
:104E30002A20FFF73AFF2A20FFF72CFF4FF48020AB
:104E40006061A06000F02AF81420FFF723FF00F053
:104E50000AF80A20FFF71EFF10206061206840F06A
:104E60001000206010BD08210A201EE7DFF8204551
:104E7000002020606060E060A060DFF81805DFF8C7
:104E80001C15016041684FF6FF021140DFF808254C
:104E900011434160002170472020FBE62060032180
:104EA000142002E7DFF8E8140A6802430A600A697E
:104EB000104308617047DFF8E81408607047DFF8B6
:104EC000E404012101614FF480614161DFF8D814ED
:104ED00041604FF044310160DFF8D004DFF8D014B6
:104EE0004160DFF8D0140160DFF8CC04DFF8CC14A7
:104EF0004160002101607047016170474161704766
:104F0000DFF8BC04016801F00E0191FAA1F100681C
:104F100000F0700090FAA0F0400D50EA117000F01F
:104F20007700704710B5DFF89C44218841F40041B8
:104F3000218021884904490C2180DFF830148978C8
:104F4000A18022884FF6FE731A4022804FF4C87267
:104F5000904211D10A2001EB410292FBF0F2521C67
:104F6000228432225143062291FBF2F1491D91FB2A
:104F7000F0F040F4004003E0481C208401EB810085
:104F8000A08340F20140208000F006F8A0884FF492
:104F900080710843A08010BDDFF82C04816E4908A1
:104FA00049008166C16F49084900C16700218166D7
:104FB000C16601674167C167DFF8101400220A600B
:104FC0004A608A604FF07F62026043F2900282661C
:104FD0004FF44252C2674FF6FF72C2660A60DFF8B2
:104FE000F02302674A60002242678A607047F0B58A
:104FF00083B004460D46DFF8CC63DFF8B073386841
:1050000020F0406038600A2004210191009101994C
:10501000491E0191FBD1402179610099491E0091FF
:10502000FBD140213961401EEED1386840F040602C
:105030003860308840F40040308030884004400CB4
:1050400030802846FFF76EFF308B800705D5641E41
:10505000E4B2002CD3D10020FEBD2000FCD0012002
:10506000FEBDDFF8702313685B085B0013605160BE
:10507000D060106840F001001060DFF85C0312E0BF
:10508000DFF8582313685B085B0013605160D06041
:10509000106840F001001060DFF83C03018841F423
:1050A00080510180FFE7018841F400610180704771
:1050B000DFF82C03DFF82C130160DFF82C130160FC
:1050C0007047CA48016841F080010160704701B42F
:1050D0000020C7490A68D2070CD50A6812F01402EA
:1050E00018BF0120009A521E009202D00028F1D071
:1050F00000E00120096811F0140118BF012001B07F
:10510000704770B50546BA4C206840F03400206006
:10511000B84E3046FFF7DBFF78B9606840F0020018
:105120006060A560606840F0400060603046FFF756
:10513000CEFF616821F00201616070BD2DE9F0428F
:1051400004460D46AA4E306840F03400306040F20C
:10515000751900F020F80746A7B9706840F0010003
:105160007060258000F017F8074627B9280C60808A
:1051700000F011F807460FB100F00DF87068400814
:1051800040007060002F01BF01272068A84200275F
:105190003846BDE8F082484699E7974801684FF4E1
:1051A00080721143016070479348016821F4807157
:1051B00001607047914A012806D00CD3032807D01C
:1051C00004D3042806D0704711807047918070473F
:1051D00011817047918170470021884A012807D0CA
:1051E0000BD3032808D005D3042808BF918904E015
:1051F000118802E0918800E011890846704781B06B
:105200004FF4807000906F4801884FF48072114312
:105210000180818AC90705D40099491E0091F8D1FF
:10522000012000E0002001B0704781B04FF4807190
:105230000091674908808888800705D40098401E3F
:105240000090F8D1012001E00889002001B07047EA
:1052500081B04FF4807100915D4902780A808A889C
:10526000120704D4009A521E0092F8D108E0407848
:1052700008808888800705D40098401E0090F8D1E7
:10528000012001E00889002001B0704781B04FF68D
:10529000FF7000905A480168890205D40099491EA0
:1052A0000091F8D101200DE0C16E49084900C166A6
:1052B0004FF470014160484801884FF2FF7211407D
:1052C0000180002001B0704781B04FF6FF70009060
:1052D0004B480168890105D40099491E0091F8D115
:1052E000012013E03D490A68520852000A604FF05D
:1052F00070614160384801884FF2FF7211400180AF
:1053000001884EF6FF7211400180002001B0704705
:1053100081B04FF6FF7000903A480088400705D4EE
:105320000098401E0090F7D1012000E0002001B05D
:10533000704781B04FF400600090224801884FF41C
:10534000007211430180018B890705D50099491E20
:105350000091F8D1012000E0002001B0704700006A
:1053600000E100E018ED00E000E400E02802002089
:10537000001002400C00FFFFFFFFF6FE8000180047
:105380000020024004100240141002400400A01843
:105390000004014008ED00E00003FA0500240008C5
:1053A000140401400008014022F24744000C01406F
:1053B00064FF4284444444FF001001400000206424
:1053C00008080140005400400400024084000240EC
:1053D000105400406C000240045400408000024021
:1053E0000420024023016745AB89EFCD1020024025
:1053F0000C200240A9A0010000700040046C004095
:10540000000002401454004028480021017001218E
:1054100041700021418070472448407870472349FB
:105420004870704721484088C0F3401070471F48BB
:105430004088C0F3801070471C4840880006C00FA9
:1054400070471A484088000A02E018484088400A1D
:1054500000F001007047154840880006400F704773
:105460001248418841F04001418070470F4841880F
:105470004FF48072FFE71143418070471140418033
:1054800070470A4841884FF6BF72F7E707484188DE
:105490004FF67F72F2E7054841884FF6FF62EDE76D
:1054A000024841884FF61F72E8E7000030020020F2
:1054B00010B5DFF8784700B92BE000F095F80068E8
:1054C000804720680A3010BD80B5DFF860070068AB
:1054D000C178DFF85C2752788A420CD38278002AA0
:1054E00004BF8288002A06D1817200F07DF84068EE
:1054F0008047002002BD022002BD10B5DFF82C4716
:1055000000B906E000F070F88068804720680C3031
:1055100010BD206801210182002010BD10B5DFF808
:105520000C472068C1784079DFF808271268926933
:10553000904721688A7A92B1002804BF0879002830
:105540000DD1887858B900F04FF8C06880472068BE
:105550004179C1722068C1780173002010BD02201A
:1055600010BD10B5DFF8C416096810B90220088212
:1055700038E0DFF8C44600202080087800227F232E
:10558000184214D1487A81064CBF42F00201002132
:1055900021704006207854BF00F0FE0040F001006A
:1055A000207000F021F800698047204610BD00F00F
:1055B0007F03012BF9D000F07F00022812D1487937
:1055C00000F00F0142F0010200F083FA05D500F06F
:1055D00030001028E5D12270E3E700F44050B0F528
:1055E000805FF7E7002010BDDFF8500600687047C5
:1055F000F8B5DFF838060068017811F07F0102BFC6
:10560000417A01F0DF0141724ED0022901BF418889
:1056100000290179002949D1417921F08004DFF87E
:1056200020560A0655F824204CBF02F0300202F43E
:105630004052DFF8FC351B789C4237D2002A1CBF51
:10564000807A002832D0080655F824000BD500F0E7
:105650003000102824D1204600F072FB3021204673
:1056600000F019FB1CE000F44050B0F5805F17D14A
:1056700048F280064BF68F77200007D1DFF8C4058B
:1056800090F82C10204600F083FB01E000F046FB70
:1056900055F82400384080F44050304345F8240049
:1056A000FFF7A2FF406980470020F2BD0220F2BD53
:1056B00038B5DFF878050268537923F08000DFF809
:1056C00080151C0651F820404CBF04F0300404F44F
:1056D0004054DFF85C552D78A84206D2558825B98C
:1056E000002C1CBF927A002A01D1022032BD48F260
:1056F00080021B0651F8203042BF48F6BF74234099
:1057000083F0100304D44BF68F74234083F480534A
:105710001A4341F82020FFF767FF80698047002087
:1057200032BD80B5DFF804050068417A41F0200100
:105730004172FFF759FFC0698047002002BDDFF8C2
:10574000EC241268538A20B98888C01A108200207D
:105750007047086818187047F8B5DFF8D054286803
:1057600000F110042688A168080016D0300014D07B
:10577000A088864288BF064630468847074620886C
:10578000801B2080608830186080002000F0F2FAD2
:1057900032460146384600F053FBDFF8AC642088FF
:1057A00050B1DFF8A8044FF44051018000210020DF
:1057B00000F0E7FA3020308028682188A2889142E2
:1057C00028BF032101D211B105210172F1BD0621CB
:1057D0000172DFF87C04006880B2DFF878140022E0
:1057E00041F8102030203080F1BD2DE9F843DFF87A
:1057F0003C44206800F110063188DFF84C540A0060
:1058000004BF007A042815D1DFF84C04017869B18F
:10581000DFF83C14096889B2DFF83824002342F825
:10582000113030212980042703702CE00727102035
:10583000288028E0B6F80480884505D30427414530
:1058400088BF4146884600E002274046B168884745
:105850008146002000F08DFA42460146484600F09D
:10586000DAFA4146002000F08CFA3088A0EB0800FC
:10587000308070884044708030202880DFF8CC036E
:105880004FF44051018020680772BDE8F18338B5BC
:10589000DFF898432068457801787F22114238D19B
:1058A000092D02D1FFF710FE47E0052D1BD1C1786D
:1058B00080294FD28178002901BF81880029807A10
:1058C000002847D10620DFF88813096889B2DFF87D
:1058D0008423002342F81130DFF86C1330220A8051
:1058E0002168087231BD032D08D1C178012904BF98
:1058F0008088002823D1FFF714FF1EE0012D04BF8C
:10590000C17801291BD18188C9B9407A80060DD49C
:1059100015E001F07F00012804D10B2D0FD1FFF716
:10592000FDFD0AE002280AD1012D02D1FFF760FE39
:1059300003E0032D03D1FFF7BBFE0028C2D02846A9
:10594000BC49096849698847032808BF0920C7D0AE
:105950000028B7D00820C3E738B5B44D286841788F
:10596000B44C2268062910D101787F23194229D12D
:105970008078012808BFD1696AD0022808BF116A5F
:1059800066D003281ED1516A62E00B003FD14188E6
:10599000002904BFC188022914D1017991B9017885
:1059A0007F23194204BF8388002B2ED001F07F0390
:1059B000012B12D1002140799269904710B92868D3
:1059C000807A10BB286840782168096988470328D5
:1059D00047D128680921017231BD01F07F010229F8
:1059E000F0D1407900F00F0100F0700200F071F882
:1059F0004CBF00F0300000F440508D4B1B789942B2
:105A0000E0D2002ADED10028DCD0944920E0082929
:105A100005D100787F210842D4D1914918E00A29A4
:105A200002BF017801F07F010129CBD1817A0029E1
:105A3000C8D04188002901BF01790029C188012906
:105A4000C0D100214079926990470028BAD1854998
:105A50000800B7D028680022428281610020884770
:105A6000002029680A8A4FF6FF739A4208BF09206E
:105A700004D0022818BF002A02D10820087231BDC4
:105A8000087800061ED5C88800902368009C9442C0
:105A90003CBF009808820FD382420DD293F82C00AD
:105AA0006D4C824238BF002005D392FBF0F500FB1D
:105AB000152008B90120207093F82C008882BDE8D9
:105AC000314092E60320087260484FF44051018053
:105AD00031BD5B4B000653F82100704738B55C4878
:105AE000006880B2604931F81000400000F1804049
:105AF00000F5C0404D4C21680A7A092A14D010F8EC
:105B0000012B0A70216810F8012B4A70851C35F8AA
:105B1000040B00F07BF921684880288800F076F9B2
:105B200021688880A888C8802068012101722068C7
:105B3000C08810B9FFF7ABFE01E0FFF70DFFBDE82D
:105B400031403EE010B5394C2068017A022918BF77
:105B5000042904D1FFF749FE2068007A14E00629E1
:105B600011D14178052902BF01787F22114206D167
:105B7000C07800F040F8FFF737FD006A80472D48F5
:105B8000006880688047082017E010B5274C20681F
:105B9000007A022818BF04280ED0032818BF052851
:105BA00004D1FFF7D9FD2068007A06E0072803D169
:105BB00020480068C0688047082021680872BDE856
:105BC000104080B51F4890F82C10002000F0E0F83D
:105BD00016480068017A082906D11C494FF4805202
:105BE0000A80194910220A80007A092801D101206F
:105BF00002BD002002BD70B50D4909780022104B8E
:105C000048F68F760BE0D4B253F824503540254344
:105C100045F4004545F0800543F82450521C8A4263
:105C2000F1D340F080001149086070BD5802002097
:105C3000340200205C020020A80200206002002044
:105C4000005C004000000020AE020020AC020020FA
:105C5000505C004004600040BD0200206355000815
:105C6000B1540008FB540008086000404C5C004040
:105C7000704700004FF6F8710840DFF878110860AF
:105C8000704710B5DFF8702152F8203048F68F14B5
:105C90002340194324E010B5DFF85C2152F820308E
:105CA00048F6BF742340CC0648BF83F01003890632
:105CB00048BF83F020030FE010B5DFF83C2152F815
:105CC00020304BF68F742340CC0448BF83F48053BC
:105CD000890448BF83F4005343F4004141F080013C
:105CE00042F8201010BDDFF8101151F820204BF6BB
:105CF0008F731A4082F4405242F4004209E0DFF808
:105D0000F81051F8202048F68F631A4042F4004200
:105D1000FFE742F0800241F820207047DFF8D810FA
:105D200051F8202052040AD551F8202048F68F73EC
:105D30001A4042F4404242F0800241F8202070476D
:105D40002D4951F8202052060AD551F8202048F656
:105D50008F731A4042F4004242F0C00241F8202002
:105D6000704731E0234A126892B202EBC000234A26
:105D700030E034E01F49096889B201EBC0001F49D7
:105D800033E01C4A126892B202EBC0001C4A23E0C6
:105D9000184A126892B202EBC0001A4A02EB4000A5
:105DA0003F2909D34A091F23194208BF521E120472
:105DB000910941F4004105E04A08C90748BF521C57
:105DC00012049109016070470A4A126892B202EB0C
:105DD000C0000D4A4908490042F8101070470549B3
:105DE000096889B201EBC000074951F8100080B280
:105DF00070470000505C0040005C004008600040BC
:105E0000046000400C600040006000400106090C86
:105E100041EA1020704710B5490001F1804101F5B9
:105E2000C041521C521009E010F8013B10F8014B20
:105E300043EA042321F8023B891C521EF4D110BD11
:105E4000490001F1804101F5C041521C521004E0AB
:105E500051F8043B20F8023B521EF9D17047000074
:105E60000FF258320260262003E00FF2783202600F
:105E70001C200880002070470FF23C320260042092
:105E8000F7E70FF23C0202601220F2E700E000BFE9
